:100000000C9464020C949C020C949C020C949C0230
:100010000C949C020C949C020C949C020C949C02E8
:100020000C949C020C949C020C9431280C9403298F
:100030000C9470220C949C020C949C020C949C02D4
:100040000C949C020C949C020C949C020C949C02B8
:100050000C949C020C94F8220C949C020C949C022C
:100060000C949C020C949C020C949C020C949C0298
:100070000C949C020C949C020C949C020C949C0288
:100080000C9444190C949C020C949C020C949C02B9
:100090000C949C020C949C020C949C020C949C0268
:1000A0000C949C020C949C020C949C02780678069A
:1000B000A406A4060C073708370837082A07C30721
:1000C000D407D407881A8B1A911AA21A671B391CF5
:1000D000A41BD11B011C702997298F2A97298F2ACD
:1000E000E329062A8F2A5D2A6C2A07634236B79BCA
:1000F000D8A71A39685618AEBAAB558C1D3CB7CC88
:100100005763BD6DEDFD753EF6177231BF000000FF
:10011000803F08000000BE922449123EABAAAA2AE2
:10012000BECDCCCC4C3E00000080BEABAAAAAA3EFD
:1001300000000000BF000000803F00000000000839
:100140004178D3BB4387D1133D190E3CC3BD4282D6
:10015000AD2B3E68EC8276BED98FE1A93E4C80EF94
:10016000FFBE01C4FF7F3F00000000002900140013
:100170001A000800150017001C0018000C001200DF
:1001800013002A002B0004001600070009000A00D3
:100190000B000D000E000F0033003400E1001D00C5
:1001A0001B00060019000500110010003600370082
:1001B0002F0030003500E000E200E30002512C0087
:1001C0002C002D002E003100380028000100010015
:1001D0000100010001000100010001000100010017
:1001E0000100010001000100010001000100010007
:1001F00001000100010001000100010001000100F7
:1002000001000100010001000100010001000100E6
:1002100001000100010001000100010001000100D6
:1002200001000100010001000100010045001E0065
:100230001F002000210022002300240025002600AA
:1002400027004400A900000000000000000000009A
:100250005000510052004F0000000000AA003A0078
:100260003B003C003D003E003F004000410042009A
:1002700043000000FB5C00000000000001000000E3
:10028000000000000000000000000000444542554E
:10029000473A2064697361626C65642E0A004445C4
:1002A0004255473A20656E61626C65642E0A000A09
:1002B0000025303258006C65645F7461736B3A20BE
:1002C000004F6E6573686F743A2061637469766578
:1002D0003A2025640A000A002530313662003A20AF
:1002E0000025303258000A722F6320303132333407
:1002F00035363738394142434445460A000A00251D
:1003000030325820006B6579626F6172645F72658C
:10031000706F72743A200064656C5F6B65795F6220
:1003200069743A2063616E27742064656C3A2025F5
:100330003032580A006164645F6B65795F6269748A
:100340003A2063616E2774206164643A202530325C
:10035000580A005B735D005B575D005B535D005B9B
:10036000525D005B445D005B435D000E0350006C1A
:100370000061006E0063006B0000000A034F004C38
:10038000004B00420000000403090409025B000363
:100390000100A0FA09040000010301010009211174
:1003A0000100012240000705810308000109040142
:1003B000000103000000092111010001226D000766
:1003C0000582032000010904020002030000000965
:1003D00021110100012222000705830320000107EB
:1003E0000503032000011201000200000008A80319
:1003F00001AE0500010200010631FF0974A10109E7
:1004000075150026FF0095207508810209761500F4
:1004100026FF00952075089102C005010980A10101
:10042000850319012AB700150126B700950175103B
:100430008100C0050C0901A101850419012AA0024F
:10044000150126A002950175108100C0050109065D
:10045000A1018506050719E029E715002501950882
:10046000750181020507190029EF1500250195F096
:10047000750181020508190129059505750191028B
:10048000950175039101C005010906A10105071930
:10049000E029E71500250195087501810295017590
:1004A0000881010507190029FF150026FF009506A0
:1004B0007508810005081901290595057501910246
:1004C000950175039101C00011241FBECFEFDAE042
:1004D000DEBFCDBF04B603FE18C080912306909105
:1004E0002406A0912506B09126068730904BA740A0
:1004F000B04B59F410922306109224061092250650
:1005000010922606E0E0F8E3099514E0A0E0B1E0DF
:10051000E6E4F0E602C005900D92AA38B107D9F7DB
:1005200026E0AAE8B4E001C01D92A332B207E1F7C9
:100530000E948C140C9421300C940000FF93EF93D4
:10054000E0918A04F0918B04309709F00995EF91BE
:10055000FF910895FC018591803011F0EFDFFBCF12
:100560000895FF27E0E230E247FF0CC0419597FF76
:1005700009C0EDE26095709580959095611D711DA3
:10058000811D911D27FF02C0219530E350E2AA276B
:10059000660F771F881F991FAA1FA41710F0A41BAE
:1005A00063955A95A9F7AA3008F0A95FA05DAF93AB
:1005B000F395611571058105910541F7ED3211F44F
:1005C000EF93F395F21718F43F93F395FBCF8F91C8
:1005D000B5DFFA95E1F70895E991F99185918030B9
:1005E00021F0853219F0AADFF9CF089520E0E894D0
:1005F00055915532C1F3503311F4689455915A33E3
:1006000048F4505390F3220F022E220F220F200D98
:10061000250FF4CF0EF4219589919991533619F352
:10062000533729F1533559F1BC0188279927E894AC
:100630005C3621F48991999168945591543639F436
:1006400046EF7EF077FF0DC08FEF9FEF0AC0553762
:100650004AE039F0583540E121F0523642E009F0E5
:100660000895FF93EF937DDFEF91FF91B7CFFF9355
:10067000EF93FC0181918030B9F360DFFBCFFF93F2
:10068000EF9368DFF1CFDF93CF93CDB7DEB7259639
:10069000A3DFCF91DF9108956E9A769A0C943D1363
:1006A00081E0089581E008950C94520308950C941C
:1006B00056031F93CF93DF9300D000D01F92CDB786
:1006C000DEB749835A836B8330918D0489819A8187
:1006D000311114C0662359F0222349F00E94700A98
:1006E000182F682F89819A810E94190A03C00E94DD
:1006F000440A182F69817A81812F04C00E94700AF0
:1007000069817A810F900F900F900F900F90DF9179
:10071000CF911F910C94B511FC01262F408151817E
:100720006281738184810C94590381E00895CF9391
:10073000DF93EC0160E00E948C03BE01DF91CF915A
:100740000C9457030C944C030C943B130895CF93D3
:10075000DF930E94C3080E945F1C0E94D122EC011B
:1007600040E063E070E084E091E00E946D150E943B
:10077000A603CE010E94E9228A3F910538F48FE951
:100780009FE00197F1F700C00000F3CF0E9406152B
:10079000DF91CF910C941E230F931F93CF93DF9380
:1007A0008C0161E00E948C03EC01B8010E945403AB
:1007B000882369F1B801CE010E94B814882339F169
:1007C000B801CE010E94FE1C882309F1B801CE01B8
:1007D0000E946C208823D9F0B801CE010E94541EDB
:1007E0008823A9F0B801CE010E94C81F882379F0A0
:1007F000F80182818823E1F1CF3D8CE5D80781F1B2
:1008000060F4C115FCE5DF0721F40E94A703C0E0F6
:1008100036C0C130DC4579F02BC0CC35EDE5DE07C4
:1008200029F1CD35FDE5DF07F1F0CB35DD4501F5EB
:100830000E94070F1DC080914005C82FC095C17050
:10084000C0FB80F980934005CC2329F08EE992E02B
:100850000E94AA02DCCF8CE892E00E94AA020FC09C
:100860000E94C40FD4CF0E94FE0E02C00E940A0F45
:10087000C801DF91CF911F910F910C9450038C2FE1
:10088000DF91CF911F910F9108950E9452220E94F3
:1008900085040C9406150E9488040C9458228295B5
:1008A000982F937344E0949F900111248C7C86953B
:1008B0008695282B822F8575880F2A7A2695822B7C
:1008C0000895CF93DF93D92F0E944F04C82F8D2F07
:1008D0000E944F042C2F30E0322F2227A901482BF1
:1008E000CA01DF91CF91089508950C94740481E0BA
:1008F00008950C9477040895CF93C82F0E9475042F
:100900008C2F0E947904CF91089580E00C947C0490
:100910000E94C8200C947C04CF930E94C820C82F4A
:1009200080918C04C81741F1C0938C0480914005DC
:1009300082FF1EC080FF04C086EB92E00E94AA02E4
:100940008091400580FF0CC01F92CF9381EB92E015
:100950009F938F930E9443030F900F900F900F90DF
:100960008091400580FF04C08FEA92E00E94AA02B5
:100970008C2FCF910C947C04CF910895CF93DF936B
:10098000CDB7DEB72B970FB6F894DEBF0FBECDBF45
:100990004F83588769877A878B8761110E94360E4B
:1009A0009E012F5F3F4F86E0F90111928A95E9F78A
:1009B00085E0FE013796D90101900D928A95E1F705
:1009C00089819A814C815D81452B31F09F3F31F4C3
:1009D00091E08F3F19F403C091E001C090E090FFD7
:1009E00009C049815A816B817C818D819E810E94E1
:1009F000570D05C0C9010E9495038111F2CF2B96B6
:100A00000FB6F894DEBF0FBECDBFDF91CF91089532
:100A1000FC01808191810E94B20A0895CF938823BE
:100A200009F49CC0C82F8238C1F40E94C82081FDFF
:100A300095C069E380911E0190911F010E940D22D3
:100A40000E94580E2FEF81EE94E02150804090409C
:100A5000E1F700C0000069E319C0833801F50E9486
:100A6000C82080FD7BC063E580911E0190911F012D
:100A70000E940D220E94580E2FEF81EE94E021502B
:100A800080409040E1F700C0000063E580911E01C6
:100A900090911F010E941822CF910C94580E843817
:100AA000C1F40E94C82082FD59C067E480911E01F4
:100AB00090911F010E940D220E94580E2FEF81EE8F
:100AC00094E0215080409040E1F700C0000067E4CE
:100AD000DDCF8CEF8C0F813AD0F46C2F80911E010A
:100AE00090911F010E946B21882349F06C2F809107
:100AF0001E0190911F010E9418220E94580E6C2F17
:100B000080911E0190911F010E940D22C5CF80E2AD
:100B10008C0F883048F4C77081E001C0880FCA95F7
:100B2000EAF70E94190EB8CFEBE5EC0FE33040F482
:100B3000F0E0E951FC4F808190E0CF910C942921A5
:100B4000C85AC73158F4EC2FF0E0EE0FFF1FE754FE
:100B5000FC4F80819181CF910C943F21CF910895DA
:100B6000882309F45BC0682F823879F40E94C8207A
:100B700081FF54C069E380911E0190911F010E9482
:100B80000D220E94580E69E310C08338B1F40E9410
:100B9000C82080FF43C063E580911E0190911F0132
:100BA0000E940D220E94580E63E580911E019091D3
:100BB0001F010E9418220C94580E843879F40E9468
:100BC000C82082FF2BC067E480911E0190911F0115
:100BD0000E940D220E94580E67E4E7CF8CEF860F2B
:100BE000813A18F380E2860F883048F4677081E01C
:100BF00001C0880F6A95EAF70E941F0EDCCF8BE5D3
:100C0000860F833020F480E090E00C942921685A0C
:100C1000673120F480E090E00C943F2108951F9309
:100C2000CF93DF93182FEB010E940E05209741F020
:100C30008FE99FE00197F1F700C000002197F6CF00
:100C4000812FDF91CF911F910C94B005893319F05A
:100C500060E070E002C060E570E00C940F0688234D
:100C600021F00E94190E0C94580E0895882321F04B
:100C70000E941F0E0C94580E0895CF92DF92EF92AF
:100C8000FF920F931F93CF93DF937C01D62FC72F33
:100C9000FC011281058102950F700E940F0E8823BE
:100CA000B9F01123A9F08C2F807F803421F080E2ED
:100CB0008D0F883068F08091AB0582FD09C082E01D
:100CC0000E94B80E0E940F0E91E0D82ED92601C0C6
:100CD000D12CCC2EC2948FE0C8228C2D90E08C3089
:100CE000910508F0C4C1FC01EA5AFF4F0C942F2F64
:100CF0008C2F807FCF70882311F0C295C07F112385
:100D000099F0CC2309F49FC180E28D0F883010F058
:100D1000D11104C08C2F0E94190E03C08C2F0E9489
:100D2000290E0E94580E8FC18D2F0E94B005CC2332
:100D300009F49DC180E28D0F883038F1DD2329F15F
:100D40008C2F0E942F0E24C08C2F807FCF7080327A
:100D500011F0C295C07FDD2319F0D130A1F13DC063
:100D60008091AB0582FF17C0112349F0CC2329F0F5
:100D70008C2F0E94190E0E94580E80E065C180E001
:100D80000E94B005CC2309F472C18C2F0E941F0E63
:100D90000E94580E6CC1112371F0002341F0013004
:100DA00031F40E94390E8C2B0E94410E60C10E94CA
:100DB000390E8C2B1DC0002319F0013009F457C1E6
:100DC0000E944E0E25C0112321F0063008F04FC1BD
:100DD0000EC0053008F04BC11BC0112361F0002389
:100DE00031F0F701858180FF2EC18F7085838C2FB4
:100DF0000E942F063CC1002359F0D93309F034C1B9
:100E0000FFEF07EE13E0F15000401040E1F72AC178
:100E10008C2F0E9436062BC18C2F86958695837069
:100E200019F0813061F023C1112321F08D2F9C2F07
:100E3000937002C080E090E00E94292120C111231C
:100E400021F08D2F9C2F937002C080E090E00E94D3
:100E50003F2115C18C2F837009F047C011110BC1C0
:100E60002D2F229526952770220F220F6D2F6F7040
:100E7000862F90E0A0E0B0E0022E04C0880F991FFA
:100E8000AA1FBB1F0A94D2F7D4FF10C04FE050E056
:100E900060E070E004C0440F551F661F771F2A955D
:100EA000D2F7409550956095709503C040E050E0B2
:100EB000BA01C695C695C3708A019B01082B192BF0
:100EC0002A2B3B2BC901B801C23049F058F4C1307C
:100ED00019F00E942F09CFC00E941D09CCC00E94AA
:100EE0004109C9C00E941B09C6C0112319F08C2FEB
:100EF000817001C08695882309F4BDC02D2F2295ED
:100F000026952770220F220F6D2F6F70862F90E08D
:100F1000A0E0B0E0022E04C0880F991FAA1FBB1FDB
:100F20000A94D2F7D4FF10C04FE050E060E070E0C8
:100F300004C0440F551F661F771F2A95D2F74095AE
:100F400050956095709503C040E050E0BA01C69599
:100F5000C695C3708A019B01082B192B2A2B3B2BAA
:100F6000C901B801C23049F058F4C13019F00E94EB
:100F7000F40981C00E94E2097EC00E94060A7BC07B
:100F80000E94550978C0CF70112339F08C2F0E9430
:100F90007B098D2F0E942F066EC08D2F0E94360672
:100FA0008C2F0E949C0967C0D23F21F128F4D03FCA
:100FB00041F0D13FC1F043C0D33F19F1D43F79F0A4
:100FC0003EC0112341F0053008F051C08C2F8F71C5
:100FD0000E94C1094CC0063008F049C0F7CF80918B
:100FE000AB0582FF18C0112339F08C2F8F710E943E
:100FF0007B093DC01123C9F38C2F8F710E949C097E
:1010000036C0112329F08C2F8F710E9466092FC0E2
:101010000E9461092CC0112349F0CF718C2F0E94CE
:101020007B0963E08C2F0E949D0E21C081E00E940D
:10103000B80E0230E0F082E00E94B80E18C0112312
:1010400031F0002391F28D2F0E940E0510C0002375
:1010500099F2D93349F41FEF27EE33E011502040C5
:101060003040E1F700C000008D2F0E94B00588EFEE
:101070008C0D843020F40E94C8200E947C04DD2066
:10108000C9F00E940B0E80FD15C0F70112820E946C
:10109000050E0E947B09C7010E947B080E94050E75
:1010A000DF91CF911F910F91FF90EF90DF90CF9044
:1010B0000C949C09DF91CF911F910F91FF90EF90BD
:1010C000DF90CF9008950F931F93CF93DF93EC01A0
:1010D000688179818A810E94BD0A8C010E94180A68
:1010E0000E940909B801CE010E943D06DF91CF910F
:1010F0001F910F910895CF93DF93EC01988189811F
:101100002B813C81232B31F08F3F31F481E09F3FD5
:1011100019F403C081E001C080E080FD1DC0CE0154
:101120000E94CC03811110C00E940F0E8823A1F0F1
:101130008A81882389F08091AB0582FD0DC082E011
:10114000DF91CF910C94B80ECE010E946308CE01BE
:10115000DF91CF910C949703DF91CF91089580E0B8
:1011600090E00E94292180E090E00E943F210E94AF
:10117000360E0C94580E80911E0190911F010E9412
:1011800023220C94AF080E94260E0C94BB08929563
:101190009F70963079F010F4925001C09A509230BE
:1011A00068F4803F69F018F4883E40F409C0843F39
:1011B00029F406C0883E20F0813F11F080E00895B8
:1011C00081E00895FC01808191810E94B20A0E9411
:1011D000C7080895CF93DF9300D000D01F92CDB7FA
:1011E000DEB70F900F900F900F900F90DF91CF917F
:1011F0000895CF93DF9300D000D000D0CDB7DEB7F5
:1012000026960FB6F894DEBF0FBECDBFDF91CF910B
:101210000895089508950C940A090C940B090E94EE
:101220000D096093B0047093B1048093B20490935D
:10123000B3040C94AF080C940F090F931F93009103
:10124000B0041091B1042091B2043091B304602B2A
:10125000712B822B932B1F910F910C940F090F93DD
:101260001F930091B0041091B1042091B204309109
:10127000B30460237123822393231F910F910C9455
:101280000F090F931F930091B0041091B1042091A6
:10129000B2043091B30460277127822793271F91EE
:1012A0000F910C940F090C940A090E945309609342
:1012B000AC047093AD048093AE049093AF040C948F
:1012C000AF0860E070E0CB010C9455090F931F93B9
:1012D00041E050E060E070E08A019B0104C0000F33
:1012E000111F221F331F8A95D2F7C901B8011F9120
:1012F0000F910C9455090F931F9341E050E060E06B
:1013000070E004C0440F551F661F771F8A95D2F7FF
:101310008091AC049091AD04A091AE04B091AF0463
:101320008A019B01082B192B2A2B3B2BC901B801E1
:101330001F910F910C9455090F931F9341E050E0BA
:1013400060E070E004C0440F551F661F771F8A9548
:10135000D2F740955095609570958091AC0490912E
:10136000AD04A091AE04B091AF048A019B010823A3
:1013700019232A233B23C901B8011F910F910C9413
:1013800055090F931F9341E050E060E070E004C006
:10139000440F551F661F771F8A95D2F78091AC04C2
:1013A0009091AD04A091AE04B091AF048A019B016D
:1013B000082719272A273B27C901B8011F910F9138
:1013C0000C9455090F931F930091AC041091AD0438
:1013D0002091AE043091AF04602B712B822B932BA4
:1013E0001F910F910C9455090F931F930091AC041A
:1013F0001091AD042091AE043091AF0460237123AD
:10140000822393231F910F910C9455090F931F93DF
:101410000091AC041091AD042091AE043091AF0462
:1014200060277127822793271F910F910C945509EC
:1014300008952CE0929F800D1124E82FE695E69503
:10144000E695877051E001C0550F8A95EAF785E06F
:10145000E89FF0011124E257FB4F20E030E070E0FC
:101460004081CB01022E02C0969587950A94E2F73F
:101470008170819584278523842781932F5F3F4F37
:101480002530310569F708952CE0929F800D1124D5
:10149000682F669566956695982F977085E0689F8A
:1014A000B001112440E050E080E0FB01E40FF51FA3
:1014B000E257FB4F208130E0092E02C03695279578
:1014C0000A94E2F721703327042E01C0220F0A94F8
:1014D000EAF7822B4F5F5F4F4530510531F7089592
:1014E000BF92CF92DF92EF92FF920F931F93CF9311
:1014F000DF938C01C090AC04D090AD04E090AE04BA
:10150000F090AF048091B0049091B104A091B20426
:10151000B091B304C82AD92AEA2AFB2ACFE1D0E045
:10152000D701C6010C2E04C0B695A795979587954F
:101530000A94D2F780FD04C0219790F7B12C07C020
:10154000BC2EB8018C2F0E94C8110197A9F38B2DD6
:10155000DF91CF911F910F91FF90EF90DF90CF908F
:10156000BF900895CF93DF93EC010E94700ABE01F3
:101570000E94C811DF91CF9108951F93CF93DF93FD
:10158000EB0190918D04992321F0CB010E94B20AC6
:1015900013C0882349F0CB010E94700A182F682FCE
:1015A000CE010E94190A04C0CB010E94440A182FE0
:1015B000BE01812F0E94C811DF91CF911F91089524
:1015C0001F93CF93DF93C091B40416E08091B504CC
:1015D000C81799F0D0E01C9FF0011D9FF00D112459
:1015E000EA54FB4F408151816281738184819581EE
:1015F0000E94F9082196C770E9CFDF91CF911F9122
:1016000008954091E6045091E7046091E8047091D8
:10161000E9048091EA049091EB040C94F908EF92AC
:10162000FF920F931F93CF93DF938091EB048295EA
:101630008F7009F065C08091E804882309F460C0C8
:101640008091B404F090B5041091E6040091E70491
:101650006091E9047091EA0491E01F3F09F090E085
:10166000C0911C01D0911D01292F96E0E92E8F1504
:1016700009F446C06115710521F00F3F21F030E0FB
:1016800003C031E001C0322F90E030FD36C0E89E4B
:10169000F001E99EF00D1124DF01AA54BB4F119611
:1016A0003C911197301329C03C91311326C01296FA
:1016B0003C911297311121C013964D915C91149772
:1016C000461B570B4C175D07C0F48091EB048F70DD
:1016D00080618093EB04E554FB4F80818F708061C3
:1016E000808386EE94E00E947B08DF91CF911F916A
:1016F0000F91FF90EF900C94E00A01968770B7CF9E
:10170000DF91CF911F910F91FF90EF9008959F92DD
:10171000AF92BF92CF92DF92EF92FF920F931F93FF
:10172000CF93DF93CDB7DEB761970FB6F894DEBFE6
:101730000FBECDBF8C0185E0F801DE011D96019042
:101740000D928A95E1F7D8011296EC909091E604FB
:10175000E091E7042091E9043091EA042115310574
:1017600031F0EF3F31F481E09F3F19F403C081E095
:1017700001C080E0B82FB1709B2E80FD47C1D80119
:101780004C9111965C9111971396AD90BC90149763
:1017900086EEC82E84E0D82EF090E804B501621BD6
:1017A000730B20911C0130911D01FF2009F4D9C059
:1017B0008091EB046217730708F095C0282F207FF3
:1017C00009F052C05E1313C0491311C0FE2CE11082
:1017D0000EC08F7080618093EB040E94010BC601E4
:1017E0000E947B088091EB04F80185834DC1AB28F2
:1017F00031F05F3F31F481E04F3F19F403C081E0E5
:1018000001C080E080FD03C081E08E2502C080E041
:1018100090E0F82FF170FF2E80FF1CC08091B4047F
:101820002091B50436E0821709F40BC190E0389F8F
:10183000F001399FF00D1124EA54FB4F61815613DA
:1018400006C06081461303C06281E61203C00196A0
:101850008770E9CFFE2CEE2009F416C18091EB04CD
:1018600081608093EB0454C05E1306C0491304C02A
:10187000E11002C0F80199C0C8010E94E208882363
:1018800061F1EE2051F12091EB04822F82958F704F
:1018900090E0029774F08091E6049091E7049887B5
:1018A0008F831986BB86AA862C87CE0107960E9455
:1018B0007B0886E0F801A6EEB4E001900D928A95CF
:1018C000E1F70E940F0B0E94010B0AC05E1711F195
:1018D000C8010E94E20881112CC0C8010E947B0847
:1018E000FF24F394D1C0282F207F81F77A2DB98A65
:1018F000A88A6E2D89890E94EA0886EE94E00E94EB
:101900007B0886E0D6011D928A95E9F70E94010BBB
:10191000F12CBAC04913DCCFE110DACFF80185838E
:10192000C8010E947B0886E0D6011D928A95E9F7DE
:10193000ABC0EE2091F22091EB04822F82958F7044
:1019400090E002970CF4B5CF8091E6049091E70403
:101950009A8389831B82BD82AC822E83CE0101963D
:10196000A6CF6217730708F044C0FE2CEE2009F4DE
:10197000B4CF5E1330C049132EC02091EB0420FD7C
:1019800021C0822F82958F70482F50E0411551055C
:10199000C9F0F80125834F30510541F08F5F982F32
:1019A0009295907F822F8F70892B8583C8010E942A
:1019B0007B0886E0F801A6EEB4E001900D928A95CE
:1019C000E1F73CC086E0F801A6EEB4E001900D928C
:1019D0008A95E1F759C0C8010E94E208811169CFD8
:1019E0008091EB0481608093EB04C8010E947B0826
:1019F0004BC07A2DB98AA88A6E2D89890E94EA087F
:101A000086E0D6011D928A95E9F718C0EE2009F408
:101A100064CFC8010E94E208F82E882309F45DCF44
:101A200086E0F801A6EEB4E001900D928A95E1F708
:101A300086EE94E00E9408050E940F0B0E94010BA5
:101A400023C04D875E878D859E850E94B20A292F0F
:101A500022952F70223028F49F7039F0811105C033
:101A60000BC0243028F49F7049F4805E883020F049
:101A7000C8010E947B089F2CF92C06C0D80115963E
:101A80009C91907F91F7F8CF8F2D61960FB6F894C7
:101A9000DEBF0FBECDBFDF91CF911F910F91FF90A1
:101AA000EF90DF90CF90BF90AF909F9008951F93DD
:101AB000CF93DF93CDB7DEB72C970FB6F894DEBF88
:101AC0000FBECDBF4F83588769877A878B879C87E6
:101AD000CE0107960E94870B8823D1F09F818885CD
:101AE0002A853B85232B31F08F3F31F481E09F3FE6
:101AF00019F403C081E001C080E080FD47C04F8140
:101B0000588569857A858B859C850E94F9083EC039
:101B100086E0FE013796DE01119601900D928A95BE
:101B2000E1F7FF81E8856A857B856115710531F0F4
:101B3000EF3F31F481E0FF3F19F403C081E001C0C1
:101B400080E080FD23C02091B50430E0C9010196FA
:101B5000877099274091B40450E084179507F1F1FC
:101B6000F983EA837D836C8396E0929FD001939FF3
:101B7000B00D1124AA54BB4FFE01319601900D9275
:101B80009A95E1F78093B5040E94E00A16E08091EF
:101B9000B4049091B504891771F1189FC001112404
:101BA0008A549B4F0E94870B882329F1E091B4044B
:101BB0001E9FF0011124EA54FB4F40815181628144
:101BC0007381848195810E94F9088091B40490E02A
:101BD0000196877099278093B404D9CF0E94C308D7
:101BE0001092B5041092B404E6EEF4E086E0DF0152
:101BF0001D928A95E9F72C960FB6F894DEBF0FBEBA
:101C0000CDBFDF91CF911F91089580910C058595EF
:101C100085958595089580910C058770089590911C
:101C20000C05977081E009F480E0089580912F05FC
:101C3000089590912F05892B80932F050895809505
:101C400090912F05892380932F05089510922F05D9
:101C5000089590912E05892B80932E0508958095E7
:101C600090912E05892380932E05089510922E05BC
:101C7000089580910D05089508950C943C0E0C94E0
:101C80003D0E9091AB0592FD08C090910D059817FF
:101C900021F080930D050C943F0E089580910D0561
:101CA000882329F010920D0580E00C943F0E0895D2
:101CB000CF93DF93E0911E01F0911F0180912F05DA
:101CC0008083E0911E01F0911F01908180912E058B
:101CD000892B808380910D05882381F0E0911E017E
:101CE000F0911F019081892B808380911E0190913A
:101CF0001F010E94552181110E944E0EC0911E01AC
:101D0000D0911F0140E250E06CEE74E0CE010E94E1
:101D1000AB2F892B69F080E2FE01ACEEB4E00190BC
:101D20000D928A95E1F7CE01DF91CF910C94D420EA
:101D3000DF91CF9108950C943C0E9091AB0592FDEC
:101D400010C098E0899F90011124262B20930C0548
:101D50000E947B0980910C058595859585950C944D
:101D60009B0E0C947B0910920C0580E00C949B0E4A
:101D700020910C058095822380930C05982F9770F5
:101D800099F430E0482F082E000C550B2417350726
:101D900059F09091AB0592FD07C085958595859585
:101DA0000E949C090C94B30E0895CF939091AB05BB
:101DB00092FB222720F92817F9F0C82F892FC0FBA2
:101DC00082F98093AB058091AA059091AB050E94A2
:101DD000370F82E00E94B80E8091400580FF0CC052
:101DE0001F92CF9381EC92E09F938F930E944303C5
:101DF0000F900F900F900F90CF9108958091AB05A9
:101E000082FB882780F991E089270C94D50E81E028
:101E10000C94D50E80E00C94D50E6FEF7FEF80E030
:101E200090E00C94E42F80E090E00E94C02F21E02D
:101E3000893E9E4F09F020E0822F089582E090E0D5
:101E40000C94B82F83E090E00C94B82FCF9384E0EB
:101E500090E00E94B82FC82F82E290E00E94B82F35
:101E60002C2F30E0A901582BCA01CF910895CF93B0
:101E7000C92F682F84E090E00E94C62F6C2F82E269
:101E800090E0CF910C94C62F87E090E00C94B82F8F
:101E9000682F87E090E00C94C62FAB01BC018FE067
:101EA00090E00C94D82FAB01BC0183E190E00C943E
:101EB000D82F60E070E0CB010C94530F60E070E02D
:101EC000CB010E944D0F0C94590F69EE7EEF80E01C
:101ED00090E00E94E42F60E082E090E00E94C62F34
:101EE00060E083E090E00E94C62F1092B004109250
:101EF000B1041092B2041092B30460E084E090E068
:101F00000E94C62F60E082E290E00E94C62F60E04F
:101F100085E090E00E94C62F60E086E090E00E949D
:101F2000C62F6FEF87E090E00E94C62F40E050E0A0
:101F3000BA0188E090E00E94D82F60E08DE090E048
:101F40000E94C62F40E050E0BA0188E190E00E9474
:101F5000D82F60E087E190E00E94C62F40E050E07B
:101F6000BA018CE190E00E94D82F60E070E080E23E
:101F700090E00E94E42F40E050E0BA0188E190E058
:101F80000E94D82F0C945E0F0C94650F682F8EE082
:101F900090E00C94C62F0E94DD2260933C05709364
:101FA0003D0580933E0590933F05609338057093FF
:101FB000390580933A0590933B05089585B780686D
:101FC00085BF85B7806885BF089581E008950C942A
:101FD000E50F08950C94E90F0C94E90F0C94EC0FA5
:101FE0000C94E90F0C94F00F0C94E90F0E94DE0F93
:101FF0008CE095E20E94BE200E94F40F0C94F20F38
:102000000E94EA0F0C94E90F0E94BC120E947B040C
:102010000C94E8150E94C8220E94E5130E94041047
:102020000C94EE0F5F926F927F928F929F92AF927D
:10203000BF92CF92DF92EF92FF920F931F93CF93B5
:10204000DF93CDB7DEB72A970FB6F894DEBF0FBE89
:10205000CDBF0E94FA13C82E81110E94CB0F30E32E
:10206000832E35E0932E00E010E0502E802F0E944A
:10207000E0125C01F401619071904F0168267926AD
:1020800061147104B1F40F5F1F4F0430110569F73B
:102090008FEF89838A831B820E94D1228160782FEF
:1020A0009D838C8349815A816B818D810E94BE04FE
:1020B0003AC08091400581FD0E94E912D12CEE24A6
:1020C000E394F12CC3018E219F21892B29F10E94D9
:1020D000E70F8823A9F0DE825F82AE20BF2081E077
:1020E000AB2809F480E088870E94D1228160782F94
:1020F0009A8789874E815F8168858A850E94BE04A0
:10210000000F111FF801E05DFA4F80819181E826F0
:10211000F926F182E08207C0D394EE0CFF1CFCE0AC
:10212000DF12D0CFB0CF81E0C11001C080E02A968D
:102130000FB6F894DEBF0FBECDBFDF91CF911F91D8
:102140000F91FF90EF90DF90CF90BF90AF909F9056
:102150008F907F906F905F9008950E9412100E9460
:102160009A1C0C948C04CF93DF930E94CD11EC0148
:10217000811522E59207E8F5811531E5930708F00E
:10218000B6C0883E910528F5803E910508F0E9C06B
:10219000883A910570F4853A910508F07AC081304B
:1021A000910509F473C008F4D9C0049708F0D9C0A8
:1021B000D5C08F3B910508F0D1C0C85AD0E0CC0FF4
:1021C000DD1FC651DC4F0990D881C02DCE0194642B
:1021D000C9C0811540E5940708F069C0811550E435
:1021E000950708F060C09A9581159F4108F4B9C021
:1021F000B5C0811536E5930728F5811545E59407A7
:1022000008F092C0811554E5950708F087C0AC012D
:1022100043705527282F26952695C115D34508F0DC
:102220006CC081E090E002C0880F991F4A95E2F7E8
:1022300040E2249F90011124EC01C22BD32BCE014C
:102240009C6890C081152AE5920780F4811539E5D4
:10225000930708F072C0811548E5940708F47EC022
:10226000D82FCC27CE01806F906A7CC09056811504
:10227000904208F073C08D2F8F710E946112DD278C
:10228000D0628F71AE01582BCA016CC081E090E022
:1022900069C0C55AD0E0C85EDB4F8881C82FD0E046
:1022A000CE0190645FC0DF70CE01906A5BC074E0C5
:1022B000969587957A95E1F7282F23703C2F3370F8
:1022C00081E090E002C0880F991F3A95E2F79C6880
:1022D000AC01522B9A019C2F9F709695969550E2D7
:1022E000959FE0011124C9018C2B9D2B3BC0D82F59
:1022F000CC27CE01816F906A35C081E090E002C0AA
:10230000880F991F4A95E2F750E2259F900111240A
:10231000EC01C22BD32BCE019A6824C0D82FCC2736
:10232000CE01846F906A1EC00E9461128F7190E08E
:10233000D82FCC27CE01906215C08F700E946112F9
:1023400094E0D695C7959A95E1F7CF70D0E0DC2F51
:10235000CC27D0699E01282BC90104C080E090E001
:1023600001C0CE01DF91CF91089520E3829FC0018B
:102370001124FC012CE0729FE00DF11D1124E60FE9
:10238000F11DEE0FFF1FE459FE4F859194910895C2
:102390000E94B5110E94B31008958238910569F129
:1023A000B0F48133910509F46DC048F48932910588
:1023B00009F463C08A32910509F469C00895853330
:1023C000910509F455C089339105B9F00895833E0C
:1023D000910569F138F4803E9105B1F0823E910596
:1023E00009F10895863E9105A9F1873E9105B9F15D
:1023F000843E910509F064C023C02091AA0520FD08
:102400004FC021FD4DC008958091AA0580FD44C0B4
:102410008091AB0580FF44C08091AA0584FD42C035
:1024200083EE4DC08091AA0582FF38C0F5CF809120
:10243000AA0582FD33C08091AB0580FD31C0ECCF91
:102440008091AB0581FF32C08091AA0584FD2AC02E
:1024500087EE35C08091AA0583FF26C0F5CF809115
:10246000AA0583FD21C08091AB0581FD1FC0ECCF83
:102470008091AA0585FD1CC01DC08091AA0585FD1F
:1024800019C016C08091AA0586FD16C017C080919C
:10249000AA0586FD13C010C089E311C082EE0FC0EB
:1024A00080EE0DC080E00BC086EE09C084EE07C050
:1024B00089E205C085E303C08AE201C081E390E0C0
:1024C00008959091AA0592FF0DC0282F28712830F9
:1024D00019F4877F846006C0282F2471243011F4FA
:1024E0008B7F886093FF0DC0282F2871283119F445
:1024F000877E846106C0282F2471243111F48B7EDD
:1025000088612091AB0520FF0DC0382F387138301D
:1025100019F4877F816006C0382F3171313011F492
:102520008E7F886021FF0DC0282F2871283119F473
:10253000877E816106C0282F2171213111F48E7EA2
:10254000886194FD877E08950C940D0F0E94FA1304
:102550008FE39CE90197F1F700C000000E94FA1395
:1025600080E00E94E01280FF04C00E94A4120C943C
:102570001E2308950C94A6120E94130F811102C00D
:102580000E94C40F0E941E0F809340050E94260FD8
:102590009093AB058093AA050E94BA120E94220F65
:1025A000682F70E080E090E00E941B096091AC040D
:1025B0007091AD048091AE049091AF040C945309D6
:1025C000E82FF0E0EE0FFF1FEC54FA4F808191816D
:1025D0000895CF92DF92EF92FF920F931F93CF93C4
:1025E000DF9386EE92E00E94AA0284EBE82E85E05B
:1025F000F82EC0E0D0E091EEC92E92E0D92E08ED81
:1026000012E0DF93CF93DF92CF920E9443038EEDCF
:1026100092E00E94AA02F701819191917F010E94AC
:1026200061049F938F931F930F930E94430386ED42
:1026300092E00E94AA0221968DB79EB708960FB627
:10264000F8949EBF0FBE8DBFC430D105D1F6DF9187
:10265000CF911F910F91FF90EF90DF90CF90089551
:1026600080EA8A95F1F7089500C008950C9430131C
:1026700008950C9438130C9439130C943813F8946F
:10268000E82FE295EF70F0E031A1282F2F7081E064
:1026900090E001C0880F2A95EAF7982F9095932330
:1026A00091A392A1892B82A3789408950F931F93ED
:1026B000CF93DF93C7E2D4E089918F3F11F00E945E
:1026C0003F1384E0CB32D807B9F7CBE1D4E007E27F
:1026D00014E089918F3F11F00E943F130C171D07E2
:1026E000C1F7DF91CF911F910F910895BF92CF92C3
:1026F000DF92EF92FF920F931F93CF93DF938C01A2
:10270000C62FD0E0CE01895D9B4F6C01FC0190810A
:102710009F3F09F450C0B62EF894E92FE295EF7070
:10272000F0E081A19F7021E030E001C0220F9A9576
:10273000EAF7822B81A382A12095282322A37894F3
:102740000E943413EBE1F4E047E254E021E030E092
:10275000E12CF12C61916F3F89F0A62FA295AF700B
:10276000B0E090968C9190E06F7002C0959587953F
:102770006A95E2F780FD02C0C90102C080E090E0E6
:10278000E82AF92A220F331F4E175F0719F7F601BF
:1027900080818F3F11F00E943F1361E0E114F1044A
:1027A00009F460E08B2D0E943613CC0FDD1FC00FA3
:1027B000D11FF982E882DF91CF911F910F91FF9095
:1027C000EF90DF90CF90BF9008950E94561388E05D
:1027D000E4EBF5E0DF01982F1D929A95E9F7ECEA1A
:1027E000F5E0DF011D928A95E9F784E00E94451427
:1027F0000C94A203FF920F931F93CF93DF93CDB757
:10280000DEB728970FB6F894DEBF0FBECDBF8E019E
:102810000F5F1F4F88E0F80111928A95E9F7F12CBC
:102820006F2DC8010E947613F394F4E0FF12F8CFE5
:1028300048E050E0B8018CEA95E00E94AB2FFF24FD
:10284000F394009709F4F12C892B41F088E0F8010A
:10285000ACEAB5E001900D928A95E1F72F2D44E0A6
:1028600064EB75E08CEA95E00E9446140E94A40394
:102870008F2D28960FB6F894DEBF0FBECDBFDF9127
:10288000CF911F910F91FF9008950895FF920F939C
:102890001F93CF93DF93F82E092F162FD72FC42F16
:1028A000222349F081E0809343050E94D122909336
:1028B000420580934105809143058823D9F080919A
:1028C0004105909142050E94E922059798F0EF2D6D
:1028D000F02FA12FBD2F80E090E04C2F50E0841707
:1028E000950734F4219131912D933D930196F7CFC3
:1028F00010924305DF91CF911F910F91FF900895A2
:102900000E9488250E940A100C9494250E94982504
:102910000E94AD100C94B6250E946F220E946F2574
:102920000E94F60F0E9480140E9486140E940010DC
:10293000FBCF682F70E065547109072E000C880BDF
:10294000990B0E94DE2B20E030E040E451E40E942D
:10295000342B9B01AC0160E070E080E090E40E94C9
:10296000622D20E030E04CED53E40E94F52C0895F8
:10297000FB018D312CE5920731F482818823A1F18E
:102980000E945A172FC08E312CE5920731F48281B4
:10299000882351F10E946A1725C08F312CE59207D8
:1029A00041F48281882301F10E9402158111F2CF46
:1029B000E7CF8A322CE5920731F482818823A1F097
:1029C0000E94BF1908C08B329C4571F48281882314
:1029D00059F00E94CA1940E064E070E080E291E0A2
:1029E0000E946D1580E0089581E008950E94991479
:1029F0000C9456170E9499140C9417160C940615F3
:102A00000895089580911006817008958091400185
:102A1000811122C010924F050E94361910924E0566
:102A200010924D0510924B0510924A05E0EDF5E02D
:102A300080E090E0A0E8BFEB118210828283938354
:102A4000A483B58317821682389626E0E031F20718
:102A500099F781E0809340010895CF92DF92EF9241
:102A6000FF92E0914F058E17E8F4E150E81B88E0F3
:102A7000E802F0011124E053FA4FC280D380E480D1
:102A8000F58020E030E0A901C701B6010E942F2B9C
:102A9000181644F4C701B601FF90EF90DF90CF9075
:102AA0000C94681A60E070E0CB01FF90EF90DF902B
:102AB000CF900895409179019C01A0E6BAEE0E9462
:102AC000352F50E4459F90011124032E000C440B38
:102AD000550B0E940D2FC9010895EF92FF921F938D
:102AE000CF93DF932091100620FD07C0DF91CF9197
:102AF0001F91FF90EF900C940615142F7B01EC01B1
:102B000080914405811102C00E94E81580914D0515
:102B100081110E94061581E080934E0510924705B1
:102B2000D093CF05C093CE05F092BD05E092BC05D1
:102B30001093110610924905109248056C817D8111
:102B40008E819F810E94AD2BCB010E945A15AC0152
:102B5000688179818A819B810E9492160E94D1228C
:102B600090934605809345058091CE059091CF05C1
:102B7000E0914805F091490523E0EE0FFF1F2A95EB
:102B8000E1F7E80FF91F64817581868197810E94C2
:102B9000AD2BCB010E945A1590934B0580934A05AB
:102BA000DF91CF911F91FF90EF90089580911006D3
:102BB00080FF07C040E063E070E081E691E00E94A2
:102BC0006D150E94D1229093460580934505089586
:102BD0008091440581112AC00E94130F811102C007
:102BE0000E94C40F0E94440F80931006E0EDF5E0B0
:102BF00080E090E0A0E8BFEB118210828283938393
:102C0000A483B58317821682389626E0E031F20756
:102C100099F780914405811105C00E942C1981E02B
:102C2000809344050E9406150C94D6150895CF9202
:102C3000DF92EF92FF920F931F93CF93DF936B017D
:102C40007C0120E030E0A9010E942F2B87FF04C007
:102C5000F7FAF094F7F8F09480914D05882309F481
:102C600058C080914405811102C00E94E81500ED12
:102C700015E0C7E0D0E0F80122AD33AD44AD55AD6D
:102C8000C701B6010E942F2B81112BC083E0CC0F0E
:102C9000DD1F8A95E1F7C053DA4F1982188280E070
:102CA00090E0A0E8BFEB8A839B83AC83BD831F8247
:102CB0001E82AC01BD01F6E0C830DF07D1F088E02C
:102CC000FE013896DE0101900D928A95E1F7198692
:102CD00018864A875B876C877D871F861E862896A5
:102CE000EACF219708501109CF3F8FEFD80719F687
:102CF00010C0C1E0C0934C0580914F058150809376
:102D00004F05811106C00E943619C09340011092F0
:102D10004D05DF91CF911F910F91FF90EF90DF90C4
:102D2000CF9008957F928F929F92AF92BF92CF9251
:102D3000DF92EF92FF920F931F93CF93DF934B019C
:102D40005C016A018091100680FFA2C08091440559
:102D5000811102C00E94E81520E030E0A901C50100
:102D6000B4010E942F2B87FF04C0B7FAB094B7F8C4
:102D7000B09470904F05072D10E0E801219743E0D3
:102D8000000F111F4A95E1F7E12CF12CCF3FFFEF27
:102D9000DF07D9F128E0E21AF108F801EE0DFF1D76
:102DA000E053FA4F2281338144815581C501B4013A
:102DB0000E942F2B811127C08E0133E0000F111FBD
:102DC0003A95E1F700531A4F80914F0590E0019733
:102DD000C817D9070CF05CC0219688E0F801389636
:102DE000D80101900D928A95E1F70E94D122F80155
:102DF0009187808782869386A486B586D786C68685
:102E0000085F1F4FE1CF2197C1CF81E0870D893047
:102E100060F580934F0581E080934C0580934D05CC
:102E2000C0914F05D0E021970E94D122FE0123E0FE
:102E3000EE0FFF1F2A95E1F7E053FA4F918380834D
:102E400082829382A482B582D782C6820E94D122D6
:102E500090935A0580935905809140018823C1F0D1
:102E60000E9438191092400113C088E080934F05EA
:102E700080ED95E028E0FC013896DC0101900D9290
:102E80002A95E1F7089626E08830920799F7C3CF94
:102E9000DF91CF911F910F91FF90EF90DF90CF9036
:102EA000BF90AF909F908F907F9008954FEF5FEF0E
:102EB0000C949216809110068160809310060E94F7
:102EC000480F0E94001540E062E070E081E591E06B
:102ED0000C946D1540E062E070E081E491E00E94A6
:102EE0006D150E9401152FEF81EE94E02150804076
:102EF0009040E1F700C000000E9406158091100686
:102F00008E7F809310060C94480FAF92BF92CF92A1
:102F1000DF92EF92FF920F931F93CF93DF938091F5
:102F20004D05811105C0C0914E05CC2309F41EC189
:102F30000E94D122EC0180914E05811102C010E067
:102F4000DDC080914505909146050E94E9222091BF
:102F50004A0530914B058217930788F38091450508
:102F6000909146050E94E92220914A0530914B0537
:102F70007C01E21AF30AD0934605C0934505A09060
:102F80004805B0904905C501019690934905809385
:102F900048050E94D12290935A05809359050091CB
:102FA000BC051091BD058091480590914905801799
:102FB000910760F0C0911106CC2329F010924905C9
:102FC0001092480503C00E940615D0C080914705A5
:102FD000C0904805D0904905C091CE05D091CF054D
:102FE000811136C0F50133E0EE0FFF1F3A95E1F78E
:102FF000EC0FFD1FD60143E0AA0FBB1F4A95E1F776
:10300000AC0FBD1F2D913D914D915C9160817181FF
:10301000828193810E942F2B81111AC081E08093BD
:10302000470582E090E00E945A15AC0160E070E034
:10303000CB010E949216B0924905A092480582E009
:1030400090E00E945A1590934B0580934A0555C015
:1030500010924705F60123E0EE0FFF1F2A95E1F7D6
:10306000EC0FFD1F64817581868197810E94AD2BD5
:10307000CB010E945A150150110920914805309149
:1030800049058E159F0530F0E816F90600F101E0BC
:1030900010E020C020173107B8F7E81AF90A2F5FAF
:1030A0003F4F309349052093480593E0220F331F8B
:1030B0009A95E1F7FE01E20FF31F64817581868125
:1030C00097810E94AD2BCB010E945A15D6CF8C015F
:1030D0000E191F0983E0220F331F8A95E1F7FE01C5
:1030E000E20FF31F6081718182819381A8010E94A8
:1030F000921610934B0500934A0511E080914D05FF
:10310000882361F180915B05811103C080915C058A
:10311000811111E0C0EDD5E0E12CF12C80914F053B
:1031200090E0E816F906D4F48E819F8101978E3FD6
:103130009F4F78F4888199810E94E9222E813F81F6
:103140008217930730F06A817B818C819D810E9478
:1031500017168FEFE81AF80A2896E0CFC0914C05B1
:10316000CC2319F010924C0501C0C12F8C2FDF9198
:10317000CF911F910F91FF90EF90DF90CF90BF9074
:10318000AF900895CF92DF92EF92FF926B017C0196
:1031900020E030E0A9010E942F2B811106C0809110
:1031A00090008F73809390003CC080919000806865
:1031B00080939000C0925405D0925505E092560538
:1031C000F092570520E030E040E051E4C701B6013D
:1031D0000E94F52C9B01AC0160E074E284E79BE463
:1031E0000E94342B6B017C010E94AD2B70939700E1
:1031F000609396006091820170E080E090E00E9410
:10320000DE2BA70196010E94F52C20E030E048EC6F
:1032100052E40E94342B0E94AD2B7093990060936E
:103220009800FF90EF90DF90CF900895E1E7F0E0F5
:10323000808182608083E0E9F0E080818068808323
:103240000895E1E7F0E080818D7F8083E0E9F0E0A0
:1032500080818F73808308950E9421193E9A82E0B5
:10326000809390008AE18093910008950C94211935
:103270000E94161980914D05882329F080E00E9454
:103280002D150C94C21808951F920F920FB60F922D
:103290001124CF92DF92EF92FF922F933F934F939F
:1032A0005F936F937F938F939F93AF93BF93EF93AE
:1032B000FF938091500590915105A0915205B091D6
:1032C00053050196A11DB11D8093500590935105A2
:1032D000A0935205B093530560915005709151052C
:1032E00080915205909153050E94DC2B6B017C016B
:1032F00020E030E040E85CE36091540570915505B2
:1033000080915605909157050E94F52C9B01AC01C8
:10331000C701B6010E942F2B87FD1CC010925005DB
:103320001092510510925205109253050E94851774
:1033300090914D05911107C090914E05911103C0D8
:103340000E94211907C0882329F080E00E942D15D2
:103350000E94C218FF91EF91BF91AF919F918F9101
:103360007F916F915F914F913F912F91FF90EF90DF
:10337000DF90CF900F900FBE0F901F901895809107
:10338000580590E0019669E070E00E94F92E809364
:10339000580508958091580590E0089669E070E01E
:1033A0000E94F92E8093580508958F929F92AF92B4
:1033B000BF92CF92DF92EF92FF920F931F93CF9322
:1033C000DF934B015C01BA01550F880B990B0E94EA
:1033D000DE2B6B017C019B01AC01C501B4010E9495
:1033E000242C8B01D82FC92F20E030E0A9010E94A6
:1033F0002F2B87FF08C098014D2F5C2FC701B60106
:103400000E94C32A03C0B8018D2F9C2F6B017C0141
:10341000C701B601DF91CF911F910F91FF90EF90FF
:10342000DF90CF90BF90AF909F908F9008958F9234
:103430009F92AF92BF92CF92DF92EF92FF924B0199
:103440005C010E94D122BC0180E090E00E94DC2B54
:103450006B017C0120E030E048EC52E460917A019D
:1034600070917B0180917C0190917D010E94F52CEF
:103470009B01AC01C701B6010E94342B44E150E02E
:103480000E94D519C0907E01D0907F01E09080010C
:10349000F09081010E94A62B660F771F660F771FA1
:1034A000FB01E55DFB4F6081718182819381A70102
:1034B00096010E94622DA50194010E94F52CFF90B7
:1034C000EF90DF90CF90BF90AF909F908F90089536
:1034D000CF92DF92EF92FF920F931F936B017C01CB
:1034E0008091590590915A050E94E9228C0164E669
:1034F00070E00E94E52EE09158058E2F90E0893013
:10350000910508F0B6C1FC01EE59FF4F0C942F2F26
:1035100010925C05AEC110925C0581E080935B0562
:10352000A8C110925C056431710530F46A307105F0
:1035300008F408C189E15EC0693C710508F002C168
:1035400088E158C010925C0520E030E040EA52E487
:10355000C701B6010E942F2B87FD8BC120E030E010
:1035600040E253E4C701B6010E942F2B87FF23C01E
:103570000E949B2F68E270E00E94F92EBC01645CFF
:103580007F4F072E000C880B990B0E94DE2B6B01DE
:103590007C010B30110568F10531110508F02EC1D1
:1035A0002EEC2003C001219F900D1124865E9B4FBD
:1035B0006AE070E089C020E030E040EA53E4C701EF
:1035C000B6010E942F2B87FF25C00E949B2F68EE1B
:1035D00073E00E94F92EBC0168517C4F072E000C4D
:1035E000880B990B0E94DE2B6B017C0106301105C4
:1035F00020F482E3809382013CC10531110508F07B
:10360000FDC02EEC2003C001219F900D1124865E89
:103610009B4F58C020E030E040E254E4C701B601BF
:103620000E942F2B87FF23C00E949B2F60ED77E025
:103630000E94F92EBC016854744F072E000C880BB1
:10364000990B0E94DE2B6B017C010031110588F281
:103650000531110508F0D2C02EEC2003C001219FD6
:10366000900D1124865E9B4F65E070E02DC020E038
:1036700030E040EA54E4C701B6010E942F2B87FFD7
:10368000F8C00E949B2F60ED77E00E94F92EBC01EC
:103690006854744F072E000C880B990B0E94DE2B88
:1036A0006B017C010432110508F4A3CF033311052B
:1036B00008F0A4C02EEC2003C001219F900D11241E
:1036C0008A50964F6FE070E00E94E52E67C081E05F
:1036D00080935C056431710540F46A30710540F5F2
:1036E00020E030E040E85EE327C0693C710508F067
:1036F00085C080E090E00E94DC2B20E030E040EAD2
:1037000051E40E94C22A20E030E044E353E40E94E6
:10371000342B9B01AC010E94F52C20E030E048E402
:1037200051E40E94F52C0E94AD2B8CE0861B62CFE9
:1037300020E030E040E05FE3C701B6010E94F52CD5
:103740006B017C018CE056CF81E080935C052AE020
:10375000269FC001279F900D112468EB7BE00E94FB
:10376000E52EBC016C5D754077FF03C071956195D6
:1037700071097727072E000C880B990B0E94DE2B0E
:103780002EE333EC4EE259E30E94F52C20E030E0CA
:1037900040EC5EE30E94C32A0E94AD2B609382013D
:1037A00068C081E080935C05C80183709927892BEC
:1037B000F1F0C8018170992724E6289FB001299F64
:1037C000700D112480E090E00E94DC2B20E030E0BE
:1037D00040E05EE30E94F52C20E030E040E45FE34F
:1037E0000E94C32A0E94AD2B6093820103C082E332
:1037F0008093820107701127012BD9F51092820165
:1038000038C081E080935C0582E380938201673950
:10381000710578F180E090E00E94DC2B20E030E040
:1038200047E153E40E94C22A20E030E04AE754E432
:103830000E94342B20E030E048E452E40E94F52C52
:1038400020E030E040EA51E40E94242C0E94A62BA4
:10385000660F771F660F771FFB01E55DFB4F208129
:10386000318142815381C701B6010E94F52C6B0161
:103870007C0180915B058823C9F020E030E0A9013C
:1038800060917E0170917F01809180019091810112
:103890000E94F02C181654F4C701B6011F910F9125
:1038A000FF90EF90DF90CF900C94171AC701B601EC
:1038B0001F910F91FF90EF90DF90CF90089580912E
:1038C000750581110C94FE14089521E08F3F910538
:1038D00008F020E0822F08950C94651C0E945F1C64
:1038E0001092750540E068E070E083E092E00C948F
:1038F0006D151092740540E068E070E083E891E097
:103900000C946D150E945F1C2091250330E02F5F01
:103910003F4F237033272093250348E2429FC00185
:10392000439F900D112440E065E070E08D579D4F5E
:103930000C946D15CF9380917105882309F442C0D2
:1039400080915D0590915E05009781F40E94D122DF
:1039500090935E0580935D0520915F0530E0211511
:10396000310571F48091600590E00BC00E94E9225E
:1039700020912303309124032817390738F322C0FC
:10398000C9010197F901EF59FA4FC08120917505DE
:10399000222331F0FC01EF59FA4F80810E94FA1482
:1039A00080917505882319F08C2F0E94F614809160
:1039B0005F0590E001966091600570E00E94F92E2D
:1039C00080935F05CF910895089581E080937505F8
:1039D00040E068E070E083E492E00E946D150C9492
:1039E000E41C089581E08093740540E068E070E095
:1039F00083EC91E00E946D150C94F11CEF92FF9204
:103A00001F93CF93DF93CDB7DEB7A3970FB6F8948C
:103A1000DEBF0FBECDBF7C0186E2E8168CE5F8065E
:103A200041F4FB018281882309F450C00E94E51C07
:103A3000AAC0F7E2EF16FCE5FF0641F4FB01828124
:103A4000882309F443C00E946E1C9DC0F8E2EF1663
:103A5000FCE5FF0649F4FB0182818823B9F18091DE
:103A600075058111F0CFE2CFFCE2EF16FCE5FF0611
:103A700039F4FB018281882349F10E94F21C83C042
:103A8000FDE2EF16FCE5FF0639F4FB018281882395
:103A9000E9F00E94791C77C0FEE2EF16FCE5FF0614
:103AA00049F4FB018281882389F08091740581119A
:103AB000F0CFE3CFF9E2EF16FCE5FF0639F4FB01A6
:103AC0008281882319F00E94821C5DC09091750547
:103AD000911105C080917405882309F4D8C0FB01B9
:103AE0004281442309F451C0F0EEEF16F10461F471
:103AF0000E945F1C81E08093730510927205109202
:103B00007105109260053FC082EEE816F10471F471
:103B10000E945F1C80917305882319F081E08093D7
:103B2000720510927305109271052DC0E3EEEE162A
:103B3000F10491F480917205882339F10E945F1C91
:103B40001092730581E08093710510925F051092C9
:103B50005E0510925D0517C0F2E5EF16F10431F431
:103B600080912303909124030A9709C081E5E81608
:103B7000F10459F480912303909124030A969093C1
:103B800024038093230380E083C080912503811167
:103B90000AC0FB01108180912803180F13508091F7
:103BA0002603180F4AC08130A1F4FB0110818091D7
:103BB0002803180F105E20912603120F818124E044
:103BC00030E0281B3109822F880F880F280F120F31
:103BD0003DC0823099F4FB01108180912803180FB9
:103BE000105E80912603180F818124E030E0281BAD
:103BF0003109F7E02F9F100D112428C0833021F5E3
:103C000083E2E6E9F3E0DE01119601900D928A95D8
:103C1000E1F7FB01808121E030E02C0F3D1F280FF0
:103C2000311DE0912603F0912703E20FF31F10915D
:103C3000280313508081180FFB01818124E030E0BC
:103C4000281B3109FCE0D6CF109128034423A1F0B2
:103C5000992319F0812F0E94F6148091730588230F
:103C600081F080916005E82FF0E0EF59FA4F108362
:103C70008F5F8093600505C0992319F0812F0E9402
:103C8000FA14C7010E946C1C91E0892701C081E0F1
:103C9000A3960FB6F894DEBF0FBECDBFDF91CF91D4
:103CA0001F91FF90EF900895CF93DF93EC01FB01FC
:103CB0008281882309F468C1C430FDE5DF0760F420
:103CC000CB3F9CE5D90788F49E0122503C45243126
:103CD000310508F05AC109C0C236EDE5DE0729F00A
:103CE000C63AFDE5DF0709F050C10E94260F909308
:103CF000AB058093AA05C1318CE5D80709F4D0C083
:103D000008F046C0C930ECE5DE0709F4A7C000F5AD
:103D1000C5308CE5D80709F48FC078F4C330ECE5E2
:103D2000DE0709F481C008F083C0C230DC4509F029
:103D300021C18091AA0581601BC1C7309CE5D907CC
:103D400009F484C008F086C08091AA05806110C182
:103D5000CD30FCE5DF0709F48FC078F4CB309CE56B
:103D6000D90709F481C008F083C08091AA05886052
:103D700084608093AA0540E0B7C0CF30FCE5DF0740
:103D800009F486C008F088C08091AA05877FF0C03A
:103D9000CE3F9CE5D90709F477C008F5C531FCE5AD
:103DA000DF0709F491C068F4C3319CE5D90709F431
:103DB0007BC008F0BDC00E94C3088091AA058F7720
:103DC000D7C0CC3FFCE5DF07D9F108F059C0CB3FA5
:103DD000DC4509F0CFC08091AB05816034C0C230B2
:103DE000EDE5DE0709F4B0C078F4C1158DE5D8071C
:103DF00009F462C008F084C08091AB0582608160E4
:103E00008093AB0540E08AC0C236EDE5DE0709F4D9
:103E10009FC0C63AFDE5DF0709F4A4C0C330DD4505
:103E200009F0A8C080E091C08091AA058260A0C07E
:103E30008091AA0584609CC08091AA05886098C082
:103E40008091AB0582608093AB0594C08091AA05F8
:103E500080628EC08091AA0580648AC00E94C308D7
:103E60008091AA05806884C08091AA058E7F80C059
:103E70008091AA058D7F7CC08091AA058B7F78C038
:103E80008091AB058E7FDFCF8091AB058D7FDBCF3F
:103E90008091AA058F7E6CC08091AA058F7D68C035
:103EA0008091AA058F7B64C08091AA05877F8B7F54
:103EB0008093AA0540E01FC08091AB058D7F8E7F67
:103EC0008093AB0540E02FC08091AA0582FB22279A
:103ED00020F991E040E0922790FB82F990FB83F972
:103EE0008093AA05992339F064E070E089E593E0B6
:103EF0000E946D153FC062E070E089E793E0F8CF63
:103F00008091AB05982F909591708E7F892B90FBB7
:103F100081F98093AB0540E0992329F064E070E0DB
:103F200089E293E0E5CF62E070E089E493E0E0CFDE
:103F30000E94C3088091AA0587FB222720F991E0FF
:103F4000922790FB87F914C081E00E94C60F12C02F
:103F50008091AA0584FB222720F991E0922790FB0B
:103F600084F906C08091AA05982F909590FB80F95E
:103F70008093AA058091AA059091AB050E94370F06
:103F80000E94C30880E001C081E0DF91CF910895D5
:103F9000CF93DF9386319C4541F5EB010E94160ECD
:103FA000982F8A8120911E0130911F01882379F07A
:103FB0009A7A81E009F480E080937605911102C03D
:103FC00069E201C065E3C9010E940D220AC0809127
:103FD0007605811102C069E201C065E3C9010E9452
:103FE00018220E94580E80E001C081E0DF91CF913D
:103FF00008950F931F93CF93DF93C42FD22FFC010B
:1040000082818823C9F0409379050E94D122909340
:1040100078058093770580E28C0F883008F057C0D0
:10402000C77081E001C0880FCA95EAF7DF91CF9190
:104030001F910F910C942F0680917905481330C081
:1040400080917705909178050E94E922883C91053E
:1040500038F510E21D0FCD17B9F080E28C0F8830D3
:1040600040F4C77081E001C0880FCA95EAF70E944A
:104070003606183028F581E09D2F977001C0880F13
:104080009A95EAF70E942F06802F0E942606183084
:10409000F0F4D77081E001C0880FDA95EAF70AC022
:1040A00080E28C0F883098F4C77081E001C0880FDF
:1040B000CA95EAF7DF91CF911F910F910C943606C4
:1040C000802FDF91CF911F910F910C942606DF91E5
:1040D000CF911F910F9108950F939C01CB01243F25
:1040E0004CE5340731F188F4293DFCE53F07D9F070
:1040F0002A3D4CE5340779F1283D3C45A9F506E217
:1041000021EE41EE68ED7CE52BC0263FFCE53F0744
:10411000E1F0A8F0273F3C4539F507E225EE46EEF1
:1041200067EF7CE51DC007E225EE45EE69ED7CE515
:1041300017C006E221EE40EE64EF7CE511C007E215
:1041400025EE44EE65EF7CE50BC006E221EE42EE83
:1041500066EF7CE505C008E221E045EE6AED7CE50E
:104160000E94F91F80E008C0FC018281882319F0B9
:104170001092790501C081E00F91089590938B040E
:1041800080938A04089590937F0580937E05089517
:10419000E0917E05F0917F05309721F00190F0814C
:1041A000E02D099480E00895EF92FF921F93CF9342
:1041B000DF93FC01A0917E05B0917F05109709F473
:1041C00042C080919503882341F08091AA0587FF22
:1041D00004C08081818386E08083EF011296ED9197
:1041E000FC911397CE0109958091400582FF2BC069
:1041F00080FF04C085E093E00E94AA0218E08FEFE0
:10420000E82E82E0F82E8091400580FF0BC0888167
:104210001F928F93FF92EF920E9443030F900F9093
:104220000F900F90115021961111EDCF8091400504
:1042300080FF09C08DEF92E0DF91CF911F91FF9039
:10424000EF900C94AA02DF91CF911F91FF90EF9015
:10425000089520917C0530917D052817390771F06C
:1042600090937D0580937C05E0917E05F0917F051C
:10427000309721F00680F781E02D09940895209170
:104280007A0530917B052817390771F090937B05EB
:1042900080937A05E0917E05F0917F05309721F0BB
:1042A0000084F185E02D09940895FC0132968091F7
:1042B0009503882331F08091AA0587FF02C09EE113
:1042C00001C096E080E0915028F021912223D9F39B
:1042D0008F5FF9CF0895662351F120919503222332
:1042E000E9F02091AA0527FF19C0462F469546956B
:1042F00046954E31E0F4677021E030E002C0220FB5
:10430000331F6A95E2F7FC01E40FF11D828190E012
:104310002823392381E0232B69F409C0FC0132965C
:1043200008962191621729F0E817F907D1F780E084
:10433000089581E008959C01FC0132969FEF80E092
:104340004191461789F09F3F19F4411101C0982F00
:104350008F5F8630A9F79F3F39F0F901E90FF11D12
:1043600097FDFA956283089508959C012A5F3F4F57
:10437000FC014281461301C0128201968217930705
:10438000B9F70895262F2695269526952E3170F497
:10439000FC01E20FF11D677021E030E001C0220F47
:1043A0006A95EAF78281282B22830895809140053F
:1043B00080FF0CC01F926F9385E393E09F938F93D0
:1043C0000E9443030F900F900F900F900895262F97
:1043D0002695269526952E3178F4FC01E20FF11DE5
:1043E000677021E030E001C0220F6A95EAF720955E
:1043F00082812823228308958091400580FF0CC08C
:104400001F926F9387E193E09F938F930E944303E2
:104410000F900F900F900F900895209195032223F5
:1044200029F02091AA0527FD0C94C2210C949B2110
:1044300020919503222329F02091AA0527FD0C94B1
:10444000E7210C94B52120919503FC01329622239B
:1044500031F08091AA0587FF02C08EE101C086E09D
:10446000DF011D928A95E9F7089508950C9435228D
:1044700083E0809380050C943622811102C081E094
:1044800001C082E0809380050C9436220C943D227A
:1044900081E0809380050C9436220C944822089584
:1044A0000C944F220C9450220C944F220C944F22C7
:1044B0000C944F22CF930E9456220E94FA130E941E
:1044C0005422C0E08C2F0E94E012892B29F4CF5F88
:1044D000C430C1F780E001C081E0CF910895089514
:1044E0001F920F920FB60F9211248F939F93AF9349
:1044F000BF9380918105811113C080911206909124
:104500001306A0911406B09115064196A11DB11D88
:104510008093120690931306A0931406B093150689
:10452000BF91AF919F918F910F900FBE0F901F90F1
:10453000189580911A06843031F10E94450410923A
:10454000810520E488E190E00FB6F894A895809367
:1045500060000FBE2093600083B7817F846083BFBB
:1045600083B7816083BF7894889583B78E7F83BF3C
:104570000FB6F894A89580916000886180936000E0
:10458000109260000FBE08950E94C3080C944B0463
:1045900082E084BD93E095BD9AEF97BD80936E0055
:1045A00008952FB7F8948091120690911306A09168
:1045B0001406B09115062FBF08952FB7F894609197
:1045C00012067091130680911406909115062FBF64
:1045D00008959C014FB7F8948091120690911306AC
:1045E000A0911406B09115064FBF821B930B08953E
:1045F00078941F920F920FB60F9211248F939F936E
:10460000AF93BF938091120690911306A091140668
:10461000B09115060196A11DB11D809312069093CD
:104620001306A0931406B0931506BF91AF919F9106
:104630008F910F900FBE0F901F90189581E080937F
:10464000E00080E28093D8001092C9008FE19EE4E0
:104650000197F1F700C0000087E090EBDC01809348
:10466000230690932406A0932506B09326069CE08B
:1046700088E10FB6F894A895809360000FBE9093E0
:104680006000FFCF8091A80508950895CF93DF9330
:1046900020919503222339F02091AA0527FF03C01A
:1046A00060E222E002C068E021E02093E9002FEF01
:1046B0003091E800215035FD06C035ED3A95F1F70F
:1046C00000002111F5CF2091E80025FF1DC0EC016D
:1046D00080919503811105C040E050E068E070E0F2
:1046E00003C070E040E050E0CE010E94252680919A
:1046F000E8008E778093E80080E2FE01A8E8B5E04C
:1047000001900D928A95E1F7DF91CF910895809302
:104710008405709386056093850580911A06843020
:1047200001F582E08093E9008FEF9091E8008150DD
:1047300095FD06C095ED9A95F1F700008111F5CF32
:104740008091E80085FF0DC040E050E063E070E03C
:1047500084E895E00E9425268091E8008E7780937A
:10476000E8000895BC0184E00C948723BC0183E039
:104770000C948723089587E693E00E94AA02809113
:104780001906811109C00E94B6270E941328809142
:10479000E20084608093E200089583E693E00E9443
:1047A000AA021092190608958FE593E00E94AA02CA
:1047B0000C944D228BE593E00E94AA0260911606AC
:1047C00081E0611101C080E00C94382287E593E01C
:1047D0000E94AA0290911A0681E0943009F080E0CC
:1047E000609116060C943D22209183052F5F822F45
:1047F00062E30E94D92E992319F02093830508952E
:104800001092830580918705882371F180911A06A3
:10481000843041F58091E9008F702091EC00922F57
:10482000917020FD90E8892B93E09093E90090919E
:10483000EB0090FF14C09091EE0097FF10C0909194
:10484000E80095FF03C01092F100F9CF9091E800C5
:1048500090FF05C09091E8009E779093E8008F70DC
:104860008093E90010928705089542E061EC81E0B1
:104870000E942F2742E261EC82E00E942F2742E251
:1048800061EC83E00E942F2790911A0681E094301A
:1048900009F080E0609116060C94462280911C0677
:1048A000833009F461C030F4813071F0823009F452
:1048B0009AC008958A3009F486C08B3009F46CC020
:1048C000893009F0A8C020C080911B06813A09F008
:1048D000A2C08091E800877F8093E80080911F0646
:1048E00090912006892B21F460E288E895E003C0CE
:1048F00060E080E090E070E00E9470268091E80027
:104900008B778093E800089580911B06813209F02F
:1049100082C080911F0690912006029708F07BC00C
:104920008091E800877F8093E8008091E80082FD15
:1049300005C080911A068111F8CF6DC02091F30057
:104940008091F20090E0922B029731F48091F10077
:10495000813011F0863021F48091F1008093A80518
:104960008091E8008B7753C080911B06813A09F053
:1049700052C080911F0690912006892B09F04BC0F0
:104980008091E800877F8093E8008091E80080FFB5
:10499000FCCF8091950336C080911B068132D9F5FA
:1049A00080911F0690912006892BA9F58091E8003F
:1049B000877F8093E8000E94642780911D06809382
:1049C00095030C94C30880911B06813221F58091D8
:1049D000E800877F8093E8000E94642780911E068C
:1049E0008093A905089580911B06813AA1F48091D6
:1049F000E800877F8093E8008091E80080FFFCCF8B
:104A00008091A9058093F1008091E8008E778093D2
:104A1000E8000C94642708959FB7F89410928705D6
:104A20009FBF90911A06943009F057C09091E90009
:104A30009F703091EC00232F217030FD20E8922BE5
:104A400023E02093E9002091EB0020FF43C0209158
:104A5000EE0027FF3FC020918205222321F0209104
:104A6000E80025FF37C01092820526E03091E8006B
:104A700035FD15C030911A06343061F53091EB00E8
:104A800035FD28C0215021F481E08093820522C0A9
:104A9000EFE9FFE03197F1F700C00000E7CF809326
:104AA000F1008091E80085FD0AC08091E80080FF58
:104AB000FCCF8091E8008E778093E80006C08FB726
:104AC000F89421E0209387058FBF9F709093E900B1
:104AD00080E008959F709093E9008FEF089584B768
:104AE000877F84BF0FB6F894A89580916000886195
:104AF00080936000109260000FBE90E080E80FB6D7
:104B0000F89480936100909361000FBE0C9448224A
:104B10000E94B6270E941328E2EEF0E080818460B4
:104B2000808378940C94A72A89E893E00C94C3209E
:104B300080911A068530C9F483E593E00E94AA02A9
:104B400080911A06853079F40E9499228091180686
:104B50008823B1F30E945A22882391F30E940F26E2
:104B60000E94C308EDCF0C94C422089508950C94BC
:104B7000B925292F332723303105C9F060F42130BE
:104B8000310581F02230310509F041C08BE590E01C
:104B90002BE833E040C021323105E1F0223231050B
:104BA00031F135C082E190E026EE33E034C0992740
:104BB0008130910549F028F0029749F5EBE6F3E0E2
:104BC00005C0E7E8F3E002C0EBE7F3E0849190E092
:104BD0009F0121C063307105D0F4660F771FFB0180
:104BE000EC57FB4F2081318189E090E014C06330A5
:104BF000710568F4FB01EE0FFF1FE258FB4F2081A7
:104C00003181FB01E558FB4F808190E004C080E0DA
:104C100090E020E030E0FA0131832083089580E1C4
:104C200089BD82E189BD09B400FEFDCF8091D80025
:104C30008F7D8093D8008091E00082608093E000B7
:104C40008091E00081FDFCCF0895CF92DF92EF923A
:104C5000FF920F931F93CF93DF93EC018B017A01A7
:104C60000E948327811133C0E114F10439F0F70168
:104C700080819181081B190BC80FD91FC12CD12C21
:104C80000115110519F18091E80085FD16C080918C
:104C9000E8008E778093E800E114F10449F0F70111
:104CA00080819181C80ED91ED182C08285E00FC05B
:104CB0000E948327882321F30AC089918093F10001
:104CC00001501109FFEFCF1ADF0ADACF80E0DF9140
:104CD000CF911F910F91FF90EF90DF90CF900895AB
:104CE00020912106309122062617370748F06115DA
:104CF000710539F42091E8002E772093E80001C077
:104D0000B901FC0120E06115710579F180911A0665
:104D10008823F1F18530F1F18091E80083FD3CC0FA
:104D20008091E80082FD2EC08091E80080FFEBCFEB
:104D30002091F3008091F20090E0922B61157105B3
:104D400051F08830910538F421912093F1006150A1
:104D500071090196F3CF21E0089709F020E08091D6
:104D6000E8008E778093E800CECF2111CFCF0AC024
:104D700080911A06882361F0853061F08091E80007
:104D800083FD0AC08091E80082FFF2CF80E00895A1
:104D900082E0089583E0089581E00895209121063E
:104DA000309122062617370748F06115710539F44E
:104DB0002091E8002E772093E80001C0B901FC01A2
:104DC00020E06115710591F180911A06882309F49C
:104DD00040C0853009F43FC08091E80083FD3DC0AC
:104DE0008091E80082FD2FC08091E80080FFE9CF2C
:104DF0002091F3008091F20090E0922B61157105F3
:104E000059F08830910540F424912093F1003196B7
:104E1000615071090196F2CF21E0089709F020E076
:104E20008091E8008E778093E800CBCF2111CCCF22
:104E30000AC080911A06882361F0853061F0809164
:104E4000E80083FD0AC08091E80082FFF2CF80E095
:104E5000089582E0089583E0089581E00895982FF1
:104E6000973068F59093E900981739F07091EC004D
:104E70002091ED005091F00003C0242F762F50E0D8
:104E800021FD02C09F5FECCF3091EB003E7F30935D
:104E9000EB003091ED003D7F3093ED003091EB0061
:104EA00031603093EB007093EC002093ED00509351
:104EB000F0002091EE0027FDE5CF80E008958F708F
:104EC0008093E90081E0089580911B0687FF11C05F
:104ED0008091E80082FD05C080911A068111F8CF0B
:104EE00011C08091E8008B770BC080911A0688234F
:104EF00049F08091E80080FFF8CF8091E8008E773C
:104F00008093E80008952091E4003091E50095E653
:104F10004091EC00842F817040FF23C08091E80015
:104F200080FD1DC080911A06882399F0853099F084
:104F30008091EB0085FD11C04091E4005091E500A7
:104F40002417350729F3915011F09A01E1CF84E03D
:104F5000089582E0089583E0089581E0089580E057
:104F600008954091E80042FFDDCF08950E94242873
:104F70000E942C28E0EEF0E0808181608083E8EDE3
:104F8000F0E080818F77808319BCA7EDB0E08C9131
:104F90008E7F8C9380818F7E808310921906089576
:104FA0000F931F93CF93DF930E9424280E942C28F5
:104FB000C8EDD0E088818F77888388818068888376
:104FC00088818F7D888319BC10921A06109216066C
:104FD000109218061092170600EE10E0F80180817A
:104FE0008B7F808388818160888342E060E080E0FD
:104FF0000E942F27E1EEF0E080818E7F8083E2EE39
:10500000F0E0808181608083808188608083F80106
:1050100080818E7F8083888180618883DF91CF91BA
:105020001F910F910895E8EDF0E080818F7E8083DD
:10503000E7EDF0E080818160808384E082BF81E0E1
:10504000809319060C94D027E8EDF0E080818E7FE4
:1050500080831092E20008951092DA001092E1002D
:1050600008951F920F920FB60F9211242F933F9322
:105070004F935F936F937F938F939F93AF93BF9360
:10508000EF93FF938091E10082FF0BC08091E200DB
:1050900082FF07C08091E1008B7F8093E1000E9436
:1050A000F4238091DA0080FF1FC08091D80080FF38
:1050B0001BC08091DA008E7F8093DA008091D90046
:1050C00080FF0DC080E189BD82E189BD09B400FE89
:1050D000FDCF81E080931A060E94BB2305C019BC56
:1050E00010921A060E94CD238091E10080FF19C022
:1050F0008091E20080FF15C08091E2008E7F809356
:10510000E2008091E20080618093E2008091D8000B
:1051100080628093D80019BC85E080931A060E94B3
:10512000DA238091E10084FF30C08091E20084FFA7
:105130002CC080E189BD82E189BD09B400FEFDCFAC
:105140008091D8008F7D8093D8008091E1008F7E80
:105150008093E1008091E2008F7E8093E200809155
:10516000E20081608093E20080911606882311F0AE
:1051700084E007C08091E30087FD02C081E001C0A8
:1051800083E080931A060E94E6238091E10083FF6A
:1051900029C08091E20083FF25C08091E100877FD4
:1051A0008093E10082E080931A06109216068091A7
:1051B000E1008E7F8093E1008091E2008E7F8093FA
:1051C000E2008091E20080618093E20042E060E0D2
:1051D00080E00E942F278091F00088608093F0008B
:1051E0000E94D423FF91EF91BF91AF919F918F9136
:1051F0007F916F915F914F913F912F910F900FBED3
:105200000F901F9018951F920F920FB60F921124B6
:105210002F933F934F935F936F937F938F939F93BE
:10522000AF93BF93CF93DF93EF93FF93C091E900C8
:10523000CF708091EC00D82FD17080FDD0E8109213
:10524000E9008091F000877F8093F00078940E94BD
:1052500047291092E9008091F00088608093F00067
:10526000CD2BCF70C093E900FF91EF91DF91CF91EB
:10527000BF91AF919F918F917F916F915F914F916E
:105280003F912F910F900FBE0F901F9018951F9375
:10529000CF93DF93CDB7DEB7AA970FB6F894DEBFF2
:1052A0000FBECDBFEBE1F6E08091F100819326E0E7
:1052B000E332F207C9F70E944E248091E80083FF91
:1052C0002EC180911B0690911C06492F50E04A3058
:1052D000510508F024C1FA01E559FF4F0C942F2F16
:1052E000803821F0823809F01AC108C08091170671
:1052F00090911806992389F082600FC080911F0653
:105300008F70873008F00BC18093E9008091EB002B
:1053100085FB882780F91092E9009091E800977F3B
:105320009093E8008093F1001092F100D1C0282FF3
:105330002D7F09F0F4C0882319F0823061F0EFC0AE
:1053400080911D06813009F0EAC0933009F080E0B9
:10535000809318062EC080911D0681112AC080916D
:105360001F068F702FEF280F263008F0D8C08093CB
:10537000E9002091EB0020FF1CC0933021F48091C4
:10538000EB00806214C09091EB0090619093EB0071
:1053900021E030E0A90102C0440F551F8A95E2F7D1
:1053A0004093EA001092EA008091EB0088608093BD
:1053B000EB001092E9008091E800877F8093E8007D
:1053C0000E946427ACC08111AAC010911D061F77EE
:1053D0008091E3008078812B8093E3008091E80046
:1053E000877F8093E8000E9464278091E80080FF17
:1053F000FCCF8091E30080688093E300111102C02C
:1054000082E001C083E080931A0689C08058823010
:1054100008F085C080911D0690911E068C3D53E0DA
:10542000950779F583E08A838AE289834FB7F894F8
:10543000DE01139620E03EE051E2E32FF0E05093CE
:105440005700E49120FF03C0E295EF703F5FEF70DB
:105450008E2F90E0EA3010F0C79601C0C0968D9371
:105460009D932F5F243149F74FBF8091E800877FDC
:105470008093E8006AE270E0CE0101960E947026F7
:1054800016C060911F0670912006AE014F5F5F4FFE
:105490000E94B725BC01892B09F441C09091E80016
:1054A000977F9093E80089819A810E94CE2680910F
:1054B000E8008B778093E80032C0803881F58091D6
:1054C000E800877F8093E800809116068093F100C2
:1054D0008091E8008E7772CF811121C080911D06E6
:1054E00090911E0699270297D4F48091E800877F57
:1054F0008093E80080911D06809316060E94642721
:1055000080911606811106C08091E30087FD02C0DC
:1055100081E001C084E080931A060E9435248091C6
:10552000E80083FF0AC08091E800877F8093E8004D
:105530008091EB0080628093EB00AA960FB6F894FE
:10554000DEBF0FBECDBFDF91CF911F910895CF93E6
:1055500080911A068823A1F0C091E900CF70909144
:10556000EC00892F817090FD80E8C82B1092E90033
:105570008091E80083FD0E944729CF70C093E90025
:10558000CF9108955058BB27AA270E94DA2A0C947D
:10559000B62C0E94A82C38F00E94AF2C20F039F4D1
:1055A0009F3F19F426F40C94A52C0EF4E095E7FB2C
:1055B0000C94912CE92F0E94C72C58F3BA1762075C
:1055C00073078407950720F079F4A6F50C94E92C6D
:1055D0000EF4E0950B2EBA2FA02D0B01B90190010E
:1055E0000C01CA01A0011124FF27591B99F0593F52
:1055F00050F4503E68F11A16F040A22F232F342F9A
:105600004427585FF3CF469537952795A795F040E7
:105610005395C9F77EF41F16BA0B620B730B840BFC
:10562000BAF09150A1F0FF0FBB1F661F771F881FB4
:10563000C2F70EC0BA0F621F731F841F48F487950C
:1056400077956795B795F7959E3F08F0B0CF9395FE
:10565000880F08F09927EE0F9795879508950E9477
:105660006D2C08F481E008950E94482B0C94B62C10
:105670000E94AF2C58F00E94A82C40F029F45F3F04
:1056800029F00C94912C51110C94EA2C0C94A52C1B
:105690000E94C72C68F39923B1F3552391F3951B0E
:1056A000550BBB27AA2762177307840738F09F5F43
:1056B0005F4F220F331F441FAA1FA9F335D00E2EB0
:1056C0003AF0E0E832D091505040E695001CCAF71D
:1056D0002BD0FE2F29D0660F771F881FBB1F2617E0
:1056E00037074807AB07B0E809F0BB0B802DBF01B7
:1056F000FF2793585F4F3AF09E3F510578F00C9486
:10570000912C0C94EA2C5F3FE4F3983ED4F38695F9
:1057100077956795B795F7959F5FC9F7880F911DA6
:105720009695879597F90895E1E0660F771F881F92
:10573000BB1F621773078407BA0720F0621B730B45
:10574000840BBA0BEE1F88F7E09508950E94AD2BED
:105750006894B1110C94EA2C08950E94CF2C88F023
:105760009F5798F0B92F9927B751B0F0E1F0660F25
:10577000771F881F991F1AF0BA95C9F714C0B13066
:1057800091F00E94E92CB1E008950C94E92C672F68
:10579000782F8827B85F39F0B93FCCF38695779595
:1057A0006795B395D9F73EF490958095709561957E
:1057B0007F4F8F4F9F4F0895E89409C097FB3EF4A9
:1057C00090958095709561957F4F8F4F9F4F99234E
:1057D000A9F0F92F96E9BB279395F69587957795CC
:1057E0006795B795F111F8CFFAF4BB0F11F460FF8C
:1057F0001BC06F5F7F4F8F4F9F4F16C0882311F0E4
:1058000096E911C0772321F09EE8872F762F05C0F7
:10581000662371F096E8862F70E060E02AF09A9592
:10582000660F771F881FDAF7880F9695879597F987
:1058300008950E94A82C20F019F00E94AF2C50F47B
:105840000C94A52C0C94EA2CE92F0E94C72C88F309
:105850005523B1F3E7FB6217730784079507A8F197
:1058600089F3E92FFF2788232AF03197660F771FE6
:10587000881FDAF7952F5527442332F09150504076
:10588000220F331F441FD2F7BB27E91BF50B621B06
:10589000730B840BB109B1F222F4620F731F841FE2
:1058A000B11D31972AF0660F771F881FBB1FEFCFFE
:1058B0009150504062F041F0882332F0660F771F1C
:1058C000881F91505040C1F793950C94972C869562
:1058D000779567959F5FD9F7F7CF990F0008550F18
:1058E000AA0BE0E8FEEF16161706E807F907C0F066
:1058F00012161306E407F50798F0621B730B840B6E
:10590000950B39F40A2661F0232B242B252B21F447
:1059100008950A2609F4A140A6958FEF811D811DE7
:10592000089597F99F6780E870E060E008959F3FD1
:1059300031F0915020F4879577956795B795880F4A
:10594000911D9695879597F908959FEF80EC08959E
:1059500000240A941616170618060906089500244E
:105960000A9412161306140605060895092E0394C8
:10597000000C11F4882352F0BB0F40F4BF2B11F43C
:1059800060FF04C06F5F7F4F8F4F9F4F089557FD9B
:105990009058440F551F59F05F3F71F04795880F9D
:1059A00097FB991F61F09F3F79F087950895121634
:1059B00013061406551FF2CF4695F1DF08C01616E0
:1059C00017061806991FF1CF869571056105089491
:1059D0000895E894BB2766277727CB0197F90895A8
:1059E0000E946D2C08F48FEF08950E94082D0C94EE
:1059F000B62C0E94A82C38F00E94AF2C20F09523E2
:105A000011F00C94912C0C94A52C11240C94EA2CDC
:105A10000E94C72C70F3959FC1F3950F50E0551F5E
:105A2000629FF001729FBB27F00DB11D639FAA27F3
:105A3000F00DB11DAA1F649F6627B00DA11D661F42
:105A4000829F2227B00DA11D621F739FB00DA11D63
:105A5000621F839FA00D611D221F749F3327A00D1D
:105A6000611D231F849F600D211D822F762F6A2FB9
:105A700011249F5750409AF0F1F088234AF0EE0F1E
:105A8000FF1FBB1F661F771F881F91505040A9F74B
:105A90009E3F510580F00C94912C0C94EA2C5F3FB2
:105AA000E4F3983ED4F3869577956795B795F79587
:105AB000E7959F5FC1F7FE2B880F911D96958795FF
:105AC00097F90895FA01EE0FFF1F30962105310571
:105AD000A1F16115710561F48038BFE39B0749F1BD
