:100000000C9445020C947D020C947D020C947D02AC
:100010000C947D020C947D020C947D020C947D0264
:100020000C947D020C947D020C94ED260C94C12757
:100030000C941F210C947D020C947D020C947D0283
:100040000C947D020C947D020C947D020C947D0234
:100050000C947D020C94A6210C947D020C947D02DC
:100060000C947D020C947D020C947D020C947D0214
:100070000C947D020C947D020C947D020C947D0204
:100080000C9419180C947D020C947D020C947D0242
:100090000C947D020C947D020C947D020C947D02E4
:1000A0000C947D020C947D020C947D020763423611
:1000B000B79BD8A71A39685618AEBAAB558C1D3CF9
:1000C000B7CC5763BD6DEDFD753EF6177231BF00BD
:1000D0000000803F08000000BE922449123EABAAF7
:1000E000AA2ABECDCCCC4C3E00000080BEABAAAA52
:1000F000AA3E00000000BF000000803F000000009A
:1001000000084178D3BB4387D1133D190E3CC3BDD2
:100110004282AD2B3E68EC8276BED98FE1A93E4C7F
:1001200080EFFFBE01C4FF7F3F00000000002900F8
:1001300014001A000800150017001C0018000C001D
:10014000120013002A002B0004001600070009000B
:100150000A000B000D000E000F0033003400E10018
:100160001D001B00060019000500110010003600DC
:1001700037002F0030003500E000E200E3000251BC
:100180002C002C002D002E0031003800280001002A
:100190000100010001000100010001000100010057
:1001A0000100010001000100010001000100010047
:1001B0000100010001000100010001000100010037
:1001C0000100010001000100010001000100010027
:1001D0000100010001000100010001000100010017
:1001E00001000100010001000100010001004500C3
:1001F0001E001F00200021002200230024002500F3
:10020000260027004400000000000000000000005D
:10021000000000005000510052004F00A900E10012
:100220003A003B003C003D003E003F0040004100E2
:1002300042004300AA00FB5C000000000000010037
:100240000000000000000000000000000000444525
:100250004255473A2064697361626C65642E0A00F6
:1002600044454255473A20656E61626C65642E0ACA
:10027000000A0025303258006C65645F7461736B4E
:100280003A20004F6E6573686F743A206163746939
:1002900076653A2025640A000A002530313662006E
:1002A0003A200025303258000A722F632030313254
:1002B000333435363738394142434445460A000A1B
:1002C000002530325820006B6579626F6172645F7F
:1002D0007265706F72743A200064656C5F6B65794B
:1002E0005F6269743A2063616E27742064656C3ABA
:1002F00020253032580A006164645F6B65795F6263
:1003000069743A2063616E2774206164643A202521
:100310003032580A005B735D005B575D005B535DD4
:10032000005B525D005B445D005B435D000E03506B
:10033000006C0061006E0063006B0000000A034F58
:10034000004C004B00420000000403090409025B5A
:1003500000030100A0FA09040000010301010009E3
:100360002111010001224000070581030800010955
:100370000401000103000000092111010001226DA8
:1003800000070582032000010904020002030000A7
:10039000000921110100012222000705830320002A
:1003A00001070503032000011201000200000008FC
:1003B000A80301AE0500010200010631FF0974A186
:1003C000010975150026FF00952075088102097640
:1003D000150026FF00952075089102C005010980CF
:1003E000A101850319012AB700150126B70095015F
:1003F00075108100C0050C0901A101850419012AAD
:10040000A002150126A002950175108100C005010A
:100410000906A1018506050719E029E71500250150
:100420009508750181020507190029EF15002501BE
:1004300095F07501810205081901290595057501D9
:100440009102950175039101C005010906A10105FD
:100450000719E029E7150025019508750181029526
:1004600001750881010507190029FF150026FF0005
:10047000950675088100050819012905950575017E
:100480009102950175039101C00011241FBECFEFA9
:10049000DAE0DEBFCDBF04B603FE18C080912106AE
:1004A00090912206A0912306B09124068730904BAC
:1004B000A740B04B59F410922106109222061092D8
:1004C000230610922406E0E0F8E3099514E0A0E08A
:1004D000B1E0ECE3FEE502C005900D92A838B1074B
:1004E000D9F726E0A8E8B4E001C01D92A132B20716
:1004F000E1F70E9482130C94FD2E0C940000FF93F0
:10050000EF93E0918804F0918904309709F0099500
:10051000EF91FF910895FC018591803011F0EFDF9C
:10052000FBCF0895FF27E0E230E247FF0CC0419582
:1005300097FF09C0EDE26095709580959095611DDB
:10054000711D811D911D27FF02C0219530E350E2EE
:10055000AA27660F771F881F991FAA1FA41710F0DC
:10056000A41B63955A95A9F7AA3008F0A95FA05D6E
:10057000AF93F395611571058105910541F7ED3252
:1005800011F4EF93F395F21718F43F93F395FBCF23
:100590008F91B5DFFA95E1F70895E991F991859189
:1005A000803021F0853219F0AADFF9CF089520E0DC
:1005B000E89455915532C1F3503311F46894559134
:1005C0005A3348F4505390F3220F022E220F220F79
:1005D000200D250FF4CF0EF4219589919991533672
:1005E00019F3533729F1533559F1BC01882799275D
:1005F000E8945C3621F48991999168945591543628
:1006000039F446EF7EF077FF0DC08FEF9FEF0AC001
:1006100055374AE039F0583540E121F0523642E092
:1006200009F00895FF93EF937DDFEF91FF91B7CF2E
:10063000FF93EF93FC0181918030B9F360DFFBCF32
:10064000FF93EF9368DFF1CFDF93CF93CDB7DEB7A2
:100650002596A3DFCF91DF9108956E9A769A0E9436
:10066000EF11089581E0089581E008950E94340318
:10067000089508950E9439030895A5E0B0E0E3E4E9
:10068000F3E00C94F82D49835A8330918B048981CF
:100690009A81311119C0662399F0222389F00E94B2
:1006A0001E0A182F682F89819A810E94FA09698190
:1006B0007A81812F0E94B6102596E3E00C94142EC7
:1006C0000E940C0A182FF3CF0E941E0A69817A81BA
:1006D000F1CFFC01262F4081518162817381848199
:1006E0000E943D03089581E00895CF93DF93EC01CC
:1006F00060E00E946903BE010E943A03DF91CF913E
:1007000008950E942D0308950E94F11108950895FF
:10071000CF93DF930E9449080E941D1B0E947F21F6
:10072000EC0140E063E070E084E091E00E9461143D
:100730000E948703CE010E9497218A3F910528F0ED
:100740000E94FD13DF91CF9108958FE99FE00197FB
:10075000F1F700C00000EECF0E9488030E94CA217A
:1007600008950E9488030E94EE2108950F931F931D
:10077000CF93DF938C0161E00E946903EC01B80123
:100780000E943603811106C080E0DF91CF911F9156
:100790000F910895B801CE010E94AC138823A1F3F4
:1007A000B801CE010E94C21B882371F3B801CE01AB
:1007B0000E940D1F882341F3B801CE010E94181D2D
:1007C000882311F3B801CE010E947F1E8823E1F235
:1007D000F80182818823D9F0CB35FDE5DF07A9F147
:1007E00070F4C130ECE5DE07B1F0CF3DFCE5DF078A
:1007F00021F1C115DC4559F40E94AC03C5CFCD35BC
:10080000EDE5DE07F9F020F1C83ADD45C1F0C80199
:100810000E943203BACF90913E05892F8E7F90FFC0
:10082000816080933E0580FF05C080E692E00E94D3
:100830008B02AACF8EE492E0FACF0E94020F0E94B0
:10084000B103A2CF0E94310EE2CF0E943B0EDFCF58
:100850000E943F0EDCCF0E94FB200E946F040E948A
:10086000FD1308950E9473040E940021089582954B
:1008700090E09C01220F331F220F331F2C7C959593
:100880008795959587958373282B30E0C901880F4C
:10089000991F8A7A359527952575822B0895CF93D0
:1008A000DF93D92F0E943704C82F8D2F0E94370461
:1008B0009C2FDF91CF91089508950E945C040895C4
:1008C00081E008950E94600408950895CF93C82F91
:1008D0000E945D048C2F0E946204CF91089580E0F5
:1008E0000E94660408950E94691F0E94660408958C
:1008F000CF930E94691FC82F80918A048C1739F109
:10090000C0938A0480913E0582FF1EC080FF1CC0F8
:1009100088E792E00E948B0280913E0580FF14C020
:100920001F92CF9383E792E09F938F930E942403BB
:1009300080913E050F900F900F900F9080FF04C0A4
:1009400081E792E00E948B028C2F0E946604CF9177
:100950000895ABE0B0E0EFEAF4E00C94F92D4F839A
:10096000588769877A878B8761110E94690D1E827B
:100970001D8285E0FE013796DE01119601900D92F1
:100980008A95E1F78C819D81892B61F449815A8197
:100990006B817C818D819E810E94920C2B96E2E07E
:1009A0000C94152E89819A8189238F3F79F3CE018A
:1009B00001960E9473038111E9CFF0CFFC01808181
:1009C00091810E94580A0895CF93C82F8823C9F0B7
:1009D0008238C9F40E94691F81FD13C089E30E9417
:1009E000210D0E948A0D2FEF81EE94E0215080406E
:1009F0009040E1F700C0000089E30E94290D0E94A9
:100A00008A0DCF9108958338A1F40E94691F80FD5B
:100A1000F8CF83E50E94210D0E948A0D2FEF81EE11
:100A200094E0215080409040E1F700C0000083E551
:100A3000E4CF8438A1F40E94691F82FDE2CF87E4ED
:100A40000E94210D0E948A0D2FEF81EE94E021502B
:100A500080409040E1F700C0000087E4CECF8CEFEB
:100A60008C0F813A90F46C2F80911C0190911D01A4
:100A70000E940920882329F08C2F0E94290D0E94B2
:100A80008A0D8C2F0E94210DBACF80E28C0F883006
:100A900048F4C77081E001C0880FCA95EAF70E9448
:100AA0004C0DADCFEBE5EC0FE33040F4F0E0EB5153
:100AB000FC4F808190E00E94C91FA3CFC85AC73164
:100AC00008F09FCFEC2FF0E0EE0FFF1FE954FC4F32
:100AD000808191810E94DF1F94CF882309F44DC04B
:100AE000823879F40E94691F81FF47C089E30E9420
:100AF000210D0E948A0D89E30E94290D0E948A0D12
:100B00000895833859F40E94691F80FF36C083E539
:100B10000E94210D0E948A0D83E5EECF843859F49E
:100B20000E94691F82FF29C087E40E94210D0E9454
:100B30008A0D87E4E1CF9CEF980F913AE8F290E2BA
:100B4000980F983050F4877091E001C0990F8A9502
:100B5000EAF7892F0E94520DD1CF9BE5980F933071
:100B600028F490E080E00E94C91F0895885A8731D8
:100B700020F490E080E00E94DF1F08951F93CF9340
:100B8000DF93182FEB010E94E404209739F4812FA2
:100B90000E946D05DF91CF911F9108958FE99FE02D
:100BA0000197F1F700C000002197EFCF70E060E0FF
:100BB000893311F460E570E00E94BE050895882332
:100BC00021F00E944C0D0E948A0D0895882321F087
:100BD0000E94520D0E948A0D0895B0E0A0E0E3EF5C
:100BE000F5E00C94F22D6C01D62FC72FFC01128179
:100BF000F580F2949FE0F9220E94420DE82E8823AE
:100C0000B9F0E12E1123A1F08C2F807F803421F0E8
:100C100080E28D0F8830D0F08091A90582FF16C048
:100C200082E00E94ED0D0E94420D91E0E82EE9263F
:100C3000BC2EB2948FE0B822FBE0FB1508F468C02C
:100C4000EB2DF0E0E150F14D0C94D42DE12CF0CFE0
:100C50000C2F0F70C07F11F00295007F112399F0C7
:100C6000002359F080E28D0F883010F0D11107C0B9
:100C7000802F0E944C0D0E948A0D8D2F41C0802F25
:100C80000E945C0DF8CF8D2F0E946D05002309F4A2
:100C90003FC080E28D0F883010F0D11104C0802F4A
:100CA0000E94520D03C0802F0E94620D0E948A0D87
:100CB0002FC00C2F0F70C07FC03211F00295007F43
:100CC000DD2381F0D13009F463C0112309F46DC034
:100CD000FF2009F463C0F601858180FFCECF8F70BD
:100CE00085835CC08091A90582FD33C0112359F032
:100CF000002329F0802F0E944C0D0E948A0D80E075
:100D00000E94E40405C080E00E946D050111C7CF78
:100D1000EB2DE850FF0B349720F40E94691F0E94CE
:100D20006604EE2089F00E943E0D80FD0DC0F601A4
:100D300012820E94380D0E940209C6010E940D080D
:100D40000E94380D0E942409CDB7DEB7E9E00C946B
:100D50000E2E112389F0F11006C00E946C0D802B1D
:100D60000E94DF05D5CF21E0F212F7CF0E946C0D73
:100D7000802B0E94730DCCCFF11006C00E94800D15
:100D8000802F0E94E605C4CF31E0F31609F2F6CFBA
:100D9000112331F085E08F1508F4BACF802FE0CF12
:100DA00094E09F1508F4B4CFEBCFFF2049F3D9337B
:100DB00049F4FFEF27EE33E0F15020403040E1F7F7
:100DC00000C000008D2F0E946D05A2CF8C2F86954C
:100DD0008695837069F0813009F09ACF8D2F9C2F12
:100DE0009370111102C090E080E00E94DF1F90CF4D
:100DF0008D2F9C2F9370111102C090E080E00E9413
:100E0000C91F86CF8C2F837009F041C0111180CF8C
:100E10004D2F429546954770440F440F0D2F0F708C
:100E200010E030E020E0042E04C0000F111F221F4C
:100E3000331F0A94D2F760E070E0CB01D4FF0FC0FB
:100E40006FE070E080E090E004C0660F771F881FBD
:100E5000991F4A95D2F76095709580959095C695A3
:100E6000C695C370602B712B822B932BC23049F037
:100E700058F4C13019F00E94AD084ACF0E949A0878
:100E800047CF0E94C00844CF0E94970841CF869563
:100E9000112311F08C2F8170882309F439CF4D2F45
:100EA000429546954770440F440F0D2F0F7010E088
:100EB00030E020E0042E04C0000F111F221F331F5A
:100EC0000A94D2F760E070E0CB01D4FF0FC06FE06E
:100ED00070E080E090E004C0660F771F881F991FC4
:100EE0004A95D2F76095709580959095C695C69570
:100EF000C370602B712B822B932BC23049F058F4B6
:100F0000C13019F00E947D0903CF0E946A0900CF09
:100F10000E949009FDCE0E94D908FACECF7011230D
:100F200029F08C2F0E9402098D2F1ACF8D2F0E943D
:100F3000E6058C2F0E942409EBCED23F51F160F4DC
:100F4000D03FB9F0D13F81F0112309F449C0F1102D
:100F500094CE8C2F8F7121C0D33F11F1D43FA1F7D4
:100F60008091A90582FD26C08C2F8F71112311F36A
:100F700014C0112349F084E08F1508F4C9CE8C2FDA
:100F80008F710E944809C4CE95E09F1508F4C0CE29
:100F9000F6CF8C2F8F711111CDCF0E940209B8CEE0
:100FA000112329F08C2F8F710E94EC08B1CE0E9482
:100FB000E608AECE112349F0CF718C2F0E940209B2
:100FC00063E08C2F0E94CF0DA3CE81E00E94ED0D37
:100FD000E1E0EF1508F09CCE82E00E94ED0D98CE86
:100FE000F110E5CE8C2F8F71A5CF0F931F93CF9368
:100FF000DF93EC01688179818A810E94630A8C0108
:101000000E94A3090E949608B801CE010E94ED0536
:10101000DF91CF911F910F910895CF93DF93EC0152
:101020008B819C81892B29F08881998189238F3F2D
:1010300051F4DF91CF910895CE010E94F507CE01C2
:101040000E947503F6CFCE010E94B6038111F4CF42
:101050000E94420D882369F38A81882351F380918D
:10106000A90582FFE6CF82E00E94ED0DE2CF90E07D
:1010700080E00E94C91F90E080E00E94DF1F0E9474
:10108000690D0E948A0D08950E94310D0E94370853
:1010900008950E94590D0E944408089592959F70EA
:1010A000963091F058F4925F9F70923058F4803FE0
:1010B00019F030F4883E30F481E008959A5FF4CF5F
:1010C000843FD1F380E00895883EB0F3813FD1F7AB
:1010D000F3CFFC01808191810E94580A0E944E0842
:1010E0000895A5E0B0E0E7E7F8E00C94F92D259627
:1010F000E2E00C94152EA6E0B0E0E1E8F8E00C94F4
:10110000F92D2696E2E00C94152E08950E9485088C
:1011100008950E9486086093AE047093AF04809394
:10112000B0049093B1040E943708089508950E9476
:10113000890808950F931F930091AE041091AF0496
:101140002091B0043091B104602B712B822B932B32
:101150000E9489081F910F9108950F931F9300918A
:10116000AE041091AF042091B0043091B10460231B
:101170007123822393230E9489081F910F91089560
:101180000F931F930091AE041091AF042091B0040F
:101190003091B10460277127822793270E94890824
:1011A0001F910F9108950E94850808950E94D30809
:1011B00008950E94D6086093AA047093AB048093AC
:1011C000AC049093AD040E943708089560E070E08D
:1011D000CB010E94D90808950F931F9341E050E07E
:1011E00060E070E08A019B0104C0000F111F221F04
:1011F000331F8A95D2F7C901B8010E94D9081F91FF
:101200000F9108950F931F9341E050E060E070E06C
:1012100004C0440F551F661F771F8A95D2F780912F
:10122000AA049091AB04A091AC04B091AD048A01E2
:101230009B01082B192B2A2B3B2BC901B8010E94BB
:10124000D9081F910F9108950F931F9341E050E02B
:1012500060E070E004C0440F551F661F771F8A9539
:10126000D2F7CB01BA016095709580959095009169
:10127000AA041091AB042091AC043091AD0460231A
:101280007123822393230E94D9081F910F910895FF
:101290000F931F9341E050E060E070E004C0440F02
:1012A000551F661F771F8A95D2F78091AA049091E7
:1012B000AB04A091AC04B091AD048A019B01082756
:1012C00019272A273B27C901B8010E94D9081F9175
:1012D0000F9108950F931F930091AA041091AB04EE
:1012E0002091AC043091AD04602B712B822B932B99
:1012F0000E94D9081F910F9108950F931F93009199
:10130000AA041091AB042091AC043091AD04602389
:101310007123822393230E94D9081F910F9108956E
:101320000F931F930091AA041091AB042091AC0479
:101330003091AD0460277127822793270E94D90836
:101340001F910F9108950895262F277091E001C0F5
:10135000990F2A95EAF723E0769567952A95E1F7A4
:1013600025E0269FF001279FF00D1124E40FF51FC3
:1013700050E040E0682F70E08191DF0111979B0100
:10138000042E02C0369527950A94E2F72170219524
:101390002827292328272C934F5F5F4F453051057D
:1013A00059F70895A82FA77023E0969587952A9559
:1013B000E1F725E0289FF001299FF00D1124E60FA9
:1013C000F71F50E040E080E0219130E00A2E02C09B
:1013D000369527950A94E2F721703327042E01C031
:1013E000220F0A94EAF7822B4F5F5F4F4530510579
:1013F00059F70895262F943070F48C3060F4682FDC
:1014000070E08CE0989F600D711D11244CE854E051
:10141000822F0E94A4090895292F943068F48C30FB
:1014200058F490E06CE874E03CE0239F800D911D3F
:1014300011240E94D209089580E00895B0E0A0E050
:10144000E4E2FAE00C94F22D8C01C090AA04D09052
:10145000AB04E090AC04F090AD048091AE049091A8
:10146000AF04A091B004B091B104C82AD92AEA2AE5
:10147000FB2ACFE1D0E0BC2ED701C6010C2E04C060
:10148000B695A795979587950A94D2F780FD09C0E0
:10149000219788F7B12C8B2DCDB7DEB7E9E00C94FE
:1014A0000E2EB8018C2F0E94D110019789F3F3CF33
:1014B000CF93DF93EC010E941E0ABE010E94D1105F
:1014C000DF91CF9108951F93CF93DF93EB0190911C
:1014D0008B04992339F0CB010E94580ADF91CF91F8
:1014E0001F910895882369F0CB010E941E0A182FCE
:1014F000682FCE010E94FA09BE01812F0E94D110EF
:10150000EDCFCB010E940C0A182FF6CF1F93CF937B
:10151000DF93C091B20416E08091B3048C1304C031
:10152000DF91CF911F910895D0E01C9FF0011D9F86
:10153000F00D1124EC54FB4F408151816281738185
:10154000848195810E947B082196C770E5CF4091E8
:10155000E4045091E5046091E6047091E704809101
:10156000E8049091E9040E947B0808951F93CF93AB
:10157000DF938091E904807F09F049C08091E604FF
:10158000882309F444C08091B204C091B3046091EF
:10159000E4047091E504A091E704B091E804D62F2B
:1015A000D72316E0C81799F190E0109711F0DF3FAC
:1015B00019F401968770F6CF189F9001199F300D8E
:1015C0001124F901EC54FB4F41814713F2CF4081C4
:1015D0004613EFCF42814111ECCF438154814A1B26
:1015E0005B0B483C510528F78091E9048F708061BE
:1015F0008093E904F901E754FB4F80818F7080618B
:10160000808384EE94E00E940D080E94860ADF9198
:10161000CF911F910895A1E1B0E0E1E1FBE00C94CE
:10162000F12D8C0185E0F801DE011D9601900D92EF
:101630008A95E1F7F801E28084EEC82E84E0D82E86
:101640006091E7047091E8046115710509F44EC1D9
:101650009091E4042091E504892F82238F3F09F4BF
:1016600045C140815181A380B480F090E604F5012A
:10167000E61BF70BFF2009F4EAC08091E904382F3C
:10168000307FE83CF10508F0A3C031116DC0FE2C9D
:10169000251316C0941314C0E11012C08F7080611E
:1016A0008093E9040E94A70AC6010E940D08809158
:1016B000E904F80185838F2D6196EAE00C940D2EE4
:1016C000A114B10429F0842F85238F3F09F027C18D
:1016D00080E0F82FF170DF2E80FF3CC08091B204D3
:1016E0002091B30436E0821315C04D875E878D8547
:1016F0009E850E94580A292F22952F702230F0F0E3
:10170000243018F59F70F1F0F8019581907FD1F4A5
:10171000D12C1EC090E0389FF001399FF00D1124AC
:10172000EC54FB4F6181651306C06081641303C0F4
:101730006281E6120FC001968770D5CF9F7011F0BD
:10174000882331F3805E883018F3C8010E940D08A9
:10175000FD2CB1CFEE2009F4AECF8091E904816079
:101760008093E904F12CA7CF251306C0941304C07D
:10177000F801EE2009F487C0C8010E946908882397
:1017800019F1EE2009F18091E904803270F0209186
:10179000E4043091E50438872F831986BB86AA8636
:1017A0008C87CE0107960E940D0886E0F801A4EE12
:1017B000B4E001900D928A95E1F70E94B60A0E946A
:1017C000A70AFF24F39477CFC8010E940D08F9CF30
:1017D000311113C07A2DB98AA88A6E2D89890E9489
:1017E000710884EE94E00E940D0886E0F6011192E3
:1017F0008A95E9F70E94A70AB5CF25130FC0941365
:101800000DC0E1100BC0F8018583C8010E940D08CE
:1018100086E0F60111928A95E9F74DCFC8010E9442
:101820006908882389F2EE2079F28091E9048032F8
:1018300008F4BBCF2091E4043091E5043A83298376
:101840001B82BD82AC828E83CE010196ACCFE83C78
:10185000F10508F03EC0FE2CEE2009F4B5CF2513AB
:101860002AC0941328C08091E90480FD1BC0982FE2
:10187000907FC1F0F8018583903F31F0982F907FE1
:10188000905F8F70892B8583C8010E940D0886E0C8
:10189000F801A4EEB4E001900D928A95E1F70E9460
:1018A000A70A09CF86E0F801A4EEB4E001900D92FA
:1018B0008A95E1F700CFC8010E946908811175CFB0
:1018C0008091E90481608093E904C8010E940D08B9
:1018D000F2CE7A2DB98AA88A6E2D89890E94710864
:1018E00086E0F60111928A95E9F7D9CFEE2009F446
:1018F0006BCFC8010E946908F82E882309F464CFD1
:1019000086E0F801A4EEB4E001900D928A95E1F72B
:1019100084EE94E00E94DE040E94B60AC0CF81E00B
:101920008E25D7CEACE0B0E0E8E9FCE00C94F82DD1
:101930004F83588769877A878B879C87CE01079664
:101940000E940B0B882369F08A859B85892B39F0CF
:101950004F815885842F85238F3F09F06BC016E097
:101960005FC086E0FE013796DE01119601900D9270
:101970008A95E1F78A859B85892B89F388859F81E4
:1019800089238F3F61F32091B30430E0C9010196B0
:10199000877099274091B2044817190671F40E9484
:1019A00049081092B3041092B20486E0E4EEF4E029
:1019B000DF011D928A95E9F7D2CF96E0929FD00180
:1019C000939FB00D1124AC54BB4FFE013196019092
:1019D0000D929A95E1F78093B3040E94860ABFCFD7
:1019E000819FC00111248C549B4F0E940B0B8823B4
:1019F000E9F0E091B2041E9FF0011124EC54FB4F7A
:101A00004081518162817381848195810E947B082C
:101A10008091B20490E00196877099278093B20478
:101A20008091B2049091B3048913DACF2C96E3E04D
:101A30000C94142E69857A858B859C850E947B0881
:101A40008ECF682F80911C0190911D010E94AB20C8
:101A50000895682F80911C0190911D010E94B9206A
:101A6000089580911C0190911D010E94C720089546
:101A700080910A05859585958595089580910A053B
:101A80008770089590910A05977081E009F480E0CD
:101A9000089580912D05089590912D05892B8093AF
:101AA0002D050895809590912D05982390932D05EF
:101AB000089510922D05089590912C05892B8093FF
:101AC0002C050895809590912C05982390932C05D2
:101AD000089510922C05089580910B05089508959E
:101AE0000E946F0D08959091A90592FF08C09091F2
:101AF0000B05981721F080930B050E94700D089537
:101B000080910B05882329F010920B0580E00E943C
:101B1000700D0895CF93DF93E0911C01F0911D01AA
:101B200080912D058083E0911C01F0911D01808141
:101B300090912C05892B808390910B05992381F03E
:101B4000E0911C01F0911D018081892B808380919F
:101B50001C0190911D010E94F51F81110E94800DB2
:101B6000C0911C01D0911D0140E250E06AEE74E08A
:101B7000CE010E947C2E892B59F080E2FE01AAEE54
:101B8000B4E001900D928A95E1F7CE010E94761F94
:101B9000DF91CF91089508950E94CB0D0895909103
:101BA000A90592FF11C098E0899F90011124622B32
:101BB00060930A050E94020980910A058595859522
:101BC00085950E94CC0D08950E94020908951092F7
:101BD0000A0580E00E94CC0D089590910A05809539
:101BE000892380930A05282F277091F4282F082E27
:101BF000000C330B9217130659F09091A90592FF30
:101C000007C08595859585950E9424090E94E70D5A
:101C10000895CF93C82F8091A90582FB992790F949
:101C20009C17E9F0C0FB82F98093A9058091A80573
:101C30009091A9050E946D0E82E00E94ED0D8091A9
:101C40003E0580FF0CC01F92CF9383E892E09F93E4
:101C50008F930E9424030F900F900F900F90CF91BD
:101C600008958091A90582FB882780F991E0892752
:101C70000E94090E089581E00E94090E089580E0F7
:101C80000E94090E08956FEF7FEF90E080E00E94C0
:101C9000B52E089590E080E00E94912E21E0883ECC
:101CA0009E4F09F020E0822F089582E090E00E948C
:101CB000892E089583E090E00E94892E0895CF93A5
:101CC00084E090E00E94892EC82F82E290E00E947A
:101CD000892E982F8C2FCF910895CF93C92F682FDD
:101CE00084E090E00E94972E6C2F82E290E00E94A8
:101CF000972ECF91089587E090E00E94892E089555
:101D0000682F87E090E00E94972E0895AB01BC01F8
:101D10008FE090E00E94A92E0895AB01BC0183E101
:101D200090E00E94A92E089560E070E0CB010E942F
:101D30008D0E089560E070E0CB010E94860E0E9437
:101D4000940E089568EE7EEF90E080E00E94B52E3C
:101D500060E082E090E00E94972E60E083E090E0F7
:101D60000E94972E1092AE041092AF041092B0040D
:101D70001092B10460E084E090E00E94972E64E04D
:101D800082E290E00E94972E60E085E090E00E9461
:101D9000972E60E086E090E00E94972E6FEF87E03C
:101DA00090E00E94972E40E050E0BA0188E090E079
:101DB0000E94A92E60E08DE090E00E94972E40E006
:101DC00050E0BA0188E190E00E94A92E60E087E12E
:101DD00090E00E94972E40E050E0BA018CE190E044
:101DE0000E94A92E70E060E080E290E00E94B52E93
:101DF00040E050E0BA0188E190E00E94A92E0E94E4
:101E00009A0E08950E94A20E0895682F8EE090E029
:101E10000E94972E08950E948B2160933A0570933B
:101E20003B0580933C0590933D0560933605709388
:101E300037058093380590933905089508950895DE
:101E40000E941F0F089508950E94230F089584ECA7
:101E500093E20E945F1F0E941E0F0E94200F0895B0
:101E600081E008950E94300F0895089508950E941A
:101E7000350F0E94360F08950E94CA110E94650412
:101E80000E94D81408950E9476210E94E9120E94AF
:101E90003C0F0E94240F0895AAE0B0E0E2E5FFE0C5
:101EA0000C94EC2D0E94FF12A82E81110E940B0FA2
:101EB0003EE2832E35E0932E10E000E0502E802F7E
:101EC0000E94F4116C01F401619071904F01681649
:101ED000790609F443C080913E0581FD0E94FD1101
:101EE000B12CEE24E394F12C6C247D24C3018E21CB
:101EF0009F21892B69F10E94320F8823B1F0BE82A5
:101F00005F82CE20DF2081E0C114D10409F480E09B
:101F100088870E947F218160782F9A8789874E81E8
:101F20005F8168858A850E94A904000F111FF8014E
:101F3000E25DFA4F80819181E826F926F182E08204
:101F400081E0A11001C080E02A96EFE00C94082EF9
:101F5000B394EE0CFF1CFCE0BF12C8CF0F5F1F4F05
:101F60000430110509F0AACF8FEF89838A831B8281
:101F70000E947F218160782F9D838C8349815A81C3
:101F80006B818D810E94A904DBCF0E944C0F0E94BF
:101F90005C1B0E9478040895CF93DF930E94D610B3
:101FA000EC01811522E59207E8F5811531E59307EB
:101FB00008F0ACC0883E910510F5803E910570F5A3
:101FC000883A910570F4853A910508F078C081301F
:101FD000910521F1009711F1049700F5D0E0C0E0E0
:101FE0001DC08F3B9105D0F7C85AD0E0CC0FDD1F44
:101FF000C851DC4F0990D881C02DD4640FC0811521
:1020000040E5940708F066C0C11580E4D80708F0E1
:102010005EC0CE019A9581159F4100F7CE01DF91F8
:10202000CF910895811536E5930718F5811545E59B
:10203000940708F083C0C11584E5D80708F079C07B
:102040009C2F969596959E0123703327C115D345F5
:1020500008F461C0C1E0D0E002C0CC0FDD1F2A95BA
:10206000E2F730E2939FC0011124C82BD92BDA6824
:10207000D5CFC1158AE5D80778F4C11599E5D907F8
:1020800008F066C0C11528E5D20708F4A7CFDC2FF9
:10209000CC27C06FD06AC2CFCE0190568115904236
:1020A00008F09CCF8D2F8F710E946D1190E0982FBA
:1020B000882788279F719C012C2BE90147C0C55AAE
:1020C000D0E0CA5EDB4FC881D0E0D064A7CFDF701C
:1020D000D06AA4CFE4E096958795EA95E1F78370FE
:1020E0002C2F26952695237040E2249F90011124E1
:1020F000382B8C2F8370C1E0D0E002C0CC0FDD1FE5
:102100008A95E2F7C22BD32BDC6888CFD82FCC2757
:10211000C16FD06A83CFC1E0D0E002C0CC0FDD1F19
:102120002A95E2F720E2929FC0011124C82BD92BF7
:10213000EBCFDC2FCC27C46FD06A70CF0E946D111B
:10214000C82FD0E0DC2FCC27CC27DF71D06266CF40
:102150008C2F8F700E946D1134E0D695C7953A95FB
:10216000E1F7CF709C2FEC01D06958CF972F7430D6
:10217000A8F46C3098F470E02CE0929F600D711D13
:102180001124FB0190E3899FE00DF11D1124EE0F56
:10219000FF1FE25DFE4F85919491089580E090E0ED
:1021A00008950E94B6100E94CC0F089582389105C0
:1021B000B1F1B0F48133910509F475C048F4893266
:1021C000910509F469C08A32910509F473C0089534
:1021D0008533910509F459C08933910501F10895BA
:1021E000833E9105A9F138F4803E9105F9F0823ED5
:1021F000910549F10895863E9105A9F1873E910523
:10220000C9F1843E910519F52091A90521FF1FC050
:102210008091A80584FD14C087EE90E00895209178
:10222000A8052370A1F080EE90E008952091A80504
:1022300020FD47C03091A90530FF09C024FF44C0EC
:1022400090E080E004C02091A80522FDF7CF08951A
:102250002091A80522FD3BC03091A90530FDE3CFB8
:1022600024FFF5CFEDCF2091A80523FFF0CF24FD6B
:10227000E7CFD2CF2091A80523FD2CC03091A9052E
:1022800031FFEECF84EE90E008952091A80525FF60
:10229000DECF89E290E008952091A80525FFD7CFF1
:1022A00085E390E008952091A80526FFD0CF8AE22B
:1022B00090E008952091A80526FFC9CF81E390E022
:1022C000089589E390E0089583EE90E0089582EE0A
:1022D00090E0089586EE90E008959091A80592FF11
:1022E00006C0282F28712830F9F4877F846093FF77
:1022F00006C0282F28712831F1F4877E846120914F
:10230000A90520FF06C0382F38713830D9F4877FEF
:10231000816021FF06C0282F28712831D1F4877EE3
:10232000816194FD877E0895282F24712430F9F669
:102330008B7F8860DCCF282F2471243101F78B7EBE
:102340008861DDCF382F3171313019F78E7F886089
:10235000E0CF282F2171213121F78E7E8861E1CFD6
:102360000E94430E08950E94FF128FE39CE901979B
:10237000F1F700C000000E94FF1280E00E94F411FB
:1023800080FF04C00E94B0110E94CA2108950E94DB
:10239000B31108950E944A0E811102C00E94020FDB
:1023A0000E94550E80933E050E945F0E9093A905F2
:1023B0008093A8050E94C7110E945A0E682F70E0F2
:1023C00090E080E00E9497086091AA047091AB04AD
:1023D0008091AC049091AD040E94D60808950895B0
:1023E00008950E94F0110895E82FF0E0EE0FFF1F0E
:1023F000EE54FA4F808191810895B0E0A0E0E3E0CF
:10240000F2E10C94F32D88EA92E00E948B0282EBB9
:10241000E82E85E0F82ED0E0C0E093EAC92E92E0E5
:10242000D92E0AE912E0DF93CF93DF92CF920E9478
:10243000240380EA92E00E948B02F701819191913E
:102440007F010E944F049F938F931F930F930E94CD
:10245000240388E992E00E948B0221968DB79EB7F3
:1024600008960FB6F8949EBF0FBE8DBFC430D1053D
:10247000D1F6CDB7DEB7E8E00C940F2E80EA8A954E
:10248000F1F7089500C008950E943E120895F8944F
:10249000E82FE295EF70F0E031A1282F2F7081E056
:1024A00090E001C0880F2A95EAF7982F9095932322
:1024B00091A392A1892B82A378940895CF93DF935F
:1024C00080E90E94471285E90E94471285E30E9435
:1024D000471286E30E944712C9E1D4E089918F3FF9
:1024E00011F00E94471284E0C532D807B9F7DF9196
:1024F000CF910895AF92BF92DF92EF92FF920F9328
:102500001F93CF93DF938C01D62EC62FD0E0CE0140
:102510008B5D9B4F7C01FC0120812F3F09F44CC057
:10252000F894E22FE295EF70F0E031A12F7081E096
:1025300090E001C0880F2A95EAF7932F982B91A37A
:1025400092A18095892382A378940E944212E9E1A6
:10255000F4E041E050E0B12CA12C21912F3FB1F1EA
:10256000A22FA295AF70B0E090968C9190E02F7062
:1025700002C0959587952A95E2F780FD27C0CA018C
:10258000A82AB92A440F551F84E0E532F80729F735
:10259000F70180818F3F11F00E94471261E0A11482
:1025A000B10409F460E08D2D0E944412CC0FDD1FB0
:1025B000C00FD11FB982A882DF91CF911F910F91D7
:1025C000FF90EF90DF90BF90AF90089590E080E093
:1025D000D7CF0E945E1288E0E2EBF5E0DF01982F92
:1025E0001D929A95E9F7EAEAF5E0DF011D928A95D6
:1025F000E9F784E00E943B130E9481030895A8E05C
:10260000B0E0E5E0F3E10C94F62D8E010F5F1F4F73
:1026100088E0F80111928A95E9F7F12C6F2DC80135
:102620000E947A12F394F4E0FF12F8CF48E050E0F1
:10263000B8018AEA95E00E947C2EFF24F39400976B
:1026400009F4F12C892B41F088E0F801AAEAB5E001
:1026500001900D928A95E1F72F2D44E062EB75E031
:102660008AEA95E00E943C130E9484038F2D2896ED
:10267000E5E00C94122E0895FF920F931F93CF93D1
:10268000DF93F82E092F162FD72FC42F222349F0BE
:1026900081E0809341050E947F21909340058093C3
:1026A0003F05809141058823A1F080913F059091DD
:1026B00040050E949721059760F0EF2DF02FA12F84
:1026C000BD2F90E080E0D0E08C179D073CF0109289
:1026D0004105CDB7DEB7E5E00C94122E2191319182
:1026E0002D933D930196F0CF0E9440240E94430F0A
:1026F0000E944D2408950E9452240E94C50F0E94FA
:10270000702408950E9418210E9426240E94270FF9
:102710000E9474130E947B130E94370FFBCF8554D5
:10272000990BBC01990F880B990B0E94832A20E01A
:1027300030E040E451E40E94D9299B01AC0160E003
:1027400070E080E090E40E94072C20E030E04CED47
:1027500053E40E949A2B0895FB018D312CE59207DA
:1027600039F482818823A1F10E942B1680E008951C
:102770008E312CE5920731F48281882349F10E9441
:102780003C16F4CF8F312CE5920741F482818823E7
:10279000F9F00E94F9138111F2CFE6CF8A322CE5CD
:1027A000920769F48281882399F00E94941840E08E
:1027B00064E070E08EE191E00E946114D7CF8B322B
:1027C0009C4531F48281882319F00E949F18EFCF35
:1027D00081E008950E948F130E94261608950E949A
:1027E0008F130E94071508950E94FD130895089500
:1027F000089580910E068170089580913E018111A7
:1028000022C010924D050E940A1810924C05109299
:102810004B051092490510924805EEECF5E080E07A
:1028200090E0A0E8BFEB1182108282839383A4839F
:10283000B58317821682389626E0EE30F20799F7B4
:1028400081E080933E010895CF92DF92EF92FF9254
:10285000E0914D058E17F0F4E150E81B88E0E802A6
:10286000F0011124E253FA4FC280D380E480F58056
:1028700020E030E0A901C701B6010E94D429181652
:102880004CF4C701B6010E942F19FF90EF90DF9022
:10289000CF90089560E070E0CB01F7CF9C01A0E6F7
:1028A000BAEE0E94DA2D2091770140E4249F900136
:1028B0001124032E000C440B550B0E94B22DC901AC
:1028C0000895EF92FF921F93CF93DF93EC017B016A
:1028D000142F80910E0680FD08C00E94FD13DF9129
:1028E000CF911F91FF90EF90089580914205811143
:1028F00002C00E94D81480914B0581110E94FD13E3
:1029000081E080934C0510924505D093CD05C0938E
:10291000CC05F092BB05E092BA0510930F06109219
:102920004705109246056C817D818E819F810E94B2
:10293000522ACB010E944E14AC01688179818A81B0
:102940009B810E947C150E947F2190934405809377
:102950004305E091CC05F091CD058091460590911D
:10296000470523E0880F991F2A95E1F7E80FF91F23
:1029700064817581868197810E94522ACB010E94D1
:102980004E149093490580934805A9CF80910E0677
:1029900080FF07C040E063E070E08FE591E00E94B7
:1029A00061140E947F21909344058093430508950C
:1029B0008091420581112AC00E944A0E811102C0F5
:1029C0000E94020F0E947B0E80930E06EEECF5E053
:1029D00080E090E0A0E8BFEB1182108282839383B5
:1029E000A483B58317821682389626E0EE30F2076C
:1029F00099F780914205811105C00E94001881E07D
:102A0000809342050E94FD130E94C6140895B0E011
:102A1000A0E0EDE0F5E10C94F32D6B017C0120E0EA
:102A200030E0A9010E94D42987FF04C0F7FAF0948E
:102A3000F7F8F09480914B05882309F458C08091F1
:102A40004205811102C00E94D8140EEC15E0C7E0C7
:102A5000D0E0A7019601F80162AD73AD84AD95ADEC
:102A60000E94D42981113CC083E0CC0FDD1F8A95E0
:102A7000E1F7C253DA4F1982188280E090E0A0E8B3
:102A8000BFEB8A839B83AC83BD831F821E82AC0114
:102A9000BD01F6E0C630DF0789F4C1E0C0934A0506
:102AA00080914D05815080934D05811120C00E9479
:102AB0000A18C0933E0110924B0519C088E0FE0130
:102AC0003896DE0101900D928A95E1F719861886F5
:102AD0004A875B876C877D871F861E862896D9CF9D
:102AE000219708501109CF3FDC0709F0B2CFCDB7CD
:102AF000DEB7E8E00C940F2EB0E0A0E0E2E8F5E1EC
:102B00000C94EF2D6B017C018A0180910E0680FFF1
:102B10007AC080914205811102C00E94D81420E041
:102B200030E0A901C701B6010E94D42987FF04C083
:102B3000F7FAF094F7F8F094D0914D052D2F21502D
:102B4000330B59013FEFA316B30609F040C0DF5F16
:102B5000D93008F478C088E080934D058EEC95E07C
:102B600028E0FC013896DC0101900D922A95E1F7EE
:102B70000896E6E086309E0799F781E080934A0543
:102B800080934B05C0914D05C150DD0B0E947F2104
:102B9000FE0123E0EE0FFF1F2A95E1F7E253FA4F03
:102BA00091838083C282D382E482F5821783068375
:102BB0000E947F21909358058093570580913E0194
:102BC000882309F10E940D1810923E011CC0C50116
:102BD00033E0880F991F3A95E1F7FC01E253FA4F71
:102BE0004F01A701960162817381848195810E94C2
:102BF000D429811124C0E40180914D058150990BA5
:102C0000A816B9062CF0CDB7DEB7ECE00C940B2E6D
:102C1000FFEFAF1ABF0A88E0FE013896DE0101908F
:102C20000D928A95E1F70E947F2199878887CA864D
:102C3000DB86EC86FD861F870E872896DDCF21E098
:102C4000A21AB1087FCFD0934D0597CF4FEF5FEF1A
:102C50000E947C15089580910E06816080930E0677
:102C60000E94800E0E94F71340E062E070E08FE463
:102C700091E00E946114089540E062E070E08FE30B
:102C800091E00E9461140E94F8132FEF81EE94E00E
:102C9000215080409040E1F700C000000E94FD13E9
:102CA00080910E068E7F80930E060E94800E0895FE
:102CB0008F929F92AF92BF92DF92EF92FF920F930B
:102CC0001F93CF93DF9380914B05811105C0C09175
:102CD0004C05CC2309F4B0C00E947F21EC01D090B8
:102CE0004C05D11023C0D12C80914B05CD2D8823CC
:102CF000A1F0C0915905C11105C0C0915A05C1117B
:102D000001C0CD2D0EEC15E0F12CE12C80914D058C
:102D10008E151F0411F00CF0EBC080914A0588233A
:102D200009F48AC010924A05C82F86C080914305D5
:102D3000909144050E9497212091480530914905C2
:102D40008217930780F280914305909144050E9479
:102D5000972120914805309149057C01E21AF30A38
:102D6000D0934405C0934305A0904605B090470515
:102D7000C501019690934705809346050E947F21E7
:102D800090935805809357050091BA051091BB05A3
:102D900080914605909147058017910748F0C091B2
:102DA0000F06CC2309F446C0109247051092460541
:102DB000C091CC05D091CD058090460590904705F7
:102DC0008091450533E0880C991C3A95E1F7811113
:102DD00040C0F50123E0EE0FFF1F2A95E1F7EC0F4D
:102DE000FD1FDE01A80DB91D2D913D914D915C9106
:102DF00060817181828193810E94D429811129C0CF
:102E000081E08093450582E090E00E944E14AC0181
:102E100060E070E0CB010E947C15B0924705A09263
:102E2000460582E090E00E944E14909349058093FD
:102E300048055ACF0E94FD138C2FDF91CF911F912F
:102E40000F91FF90EF90DF90BF90AF909F908F9089
:102E5000089510924505FE01E80DF91D6481758104
:102E6000868197810E94522ACB010E944E14015004
:102E7000110920914605309147058E159F0518F4DC
:102E800020173107D8F08C010E191F09E816F90632
:102E900010F001E010E083E0220F331F8A95E1F784
:102EA000C20FD31F688179818A819B81A8010E940A
:102EB0007C15109349050093480516CFE81AF90AC6
:102EC0002F5F3F4F309347052093460593E0220F35
:102ED000331F9A95E1F7FE01E20FF31F64817581BC
:102EE000868197810E94522ACB010E944E14C1CF45
:102EF000F8018681978101978E3F9F4F88F4F801F2
:102F0000808191810E949721F80126813781821763
:102F1000930730F062817381848195810E94071547
:102F2000FFEFEF1AFF0A085F1F4FF0CECF92DF923C
:102F3000EF92FF926B017C0120E030E0A9010E943A
:102F4000D42981110AC0809190008F7380939000E2
:102F5000FF90EF90DF90CF9008958091900080686F
:102F600080939000C0925205D0925305E092540590
:102F7000F092550520E030E040E051E4C701B60191
:102F80000E949A2B9B01AC0160E074E284E79BE411
:102F90000E94D9296B017C010E94522A70939700EC
:102FA000609396006091800170E090E080E00E9464
:102FB000832AA70196010E949A2B20E030E048EC7A
:102FC00052E40E94D9290E94522A7093990060937A
:102FD0009800BECFE1E7F0E0808182608083E0E985
:102FE000F0E08081806880830895E1E7F0E08081EF
:102FF0008D7F8083E0E9F0E080818F738083089586
:103000000E94F5173E9A82E0809390008AE18093B7
:10301000910008950E94F51708950E94EA17809183
:103020004B05882329F080E00E9424140E94961703
:1030300008951F920F920FB60F921124CF92DF9234
:10304000EF92FF922F933F934F935F936F937F93F2
:103050008F939F93AF93BF93EF93FF9380914E0510
:1030600090914F05A0915005B09151050196A11D79
:10307000B11D80934E0590934F05A0935005B093DA
:10308000510560914E0570914F05809150059091CA
:1030900051050E94812A6B017C0120E030E040E86C
:1030A0005CE36091520570915305809154059091B5
:1030B00055050E949A2B9B01AC01C701B6010E94E5
:1030C000D42987FD14C010924E0510924F0510921E
:1030D0005005109251050E94581690914B05911180
:1030E0001BC090914C05911117C00E94F517FF91DC
:1030F000EF91BF91AF919F918F917F916F915F9170
:103100004F913F912F91FF90EF90DF90CF900F90D4
:103110000FBE0F901F901895882349F380E00E94FE
:1031200024140E949617E3CF8091560590E00196F3
:1031300069E070E00E949E2D80935605089580916D
:10314000560590E0089669E070E00E949E2D8093FD
:10315000560508958F929F92AF92BF92CF92DF92C1
:10316000EF92FF926B017C01BA01550F880B990B0E
:103170000E94832A4B015C01AC019B01C701B6018F
:103180000E94C92A6B017C0120E030E0A9010E9465
:10319000D42987FF08C0A5019401C701B6010E9488
:1031A00068296B017C01C701B601FF90EF90DF90A9
:1031B000CF90BF90AF909F908F9008958F929F92E5
:1031C000AF92BF92CF92DF92EF92FF924B015C01E0
:1031D0000E947F21BC0190E080E00E94812A6B0167
:1031E0007C0120E030E048EC52E46091780170917D
:1031F000790180917A0190917B010E949A2B9B0129
:10320000AC01C701B6010E94D92944E150E00E94F7
:10321000AA18C0907C01D0907D01E0907E01F090D2
:103220007F010E944B2A660F771F660F771F675D2D
:103230007B4FFB016081718182819381A70196019F
:103240000E94072CA50194010E949A2BFF90EF90F9
:10325000DF90CF90BF90AF909F908F900895CF92C6
:10326000DF92EF92FF920F931F936B017C0180918D
:103270005705909158050E9497218C0164E670E0F3
:103280000E948A2DE0915605E93038F4F0E0E55FC0
:10329000F04D0C94D42D10925A0580915905882335
:1032A000A9F020E030E0A90160917C0170917D01DE
:1032B00080917E0190917F010E94952B181634F425
:1032C000C701B6010E94DE186B017C01C701B6017F
:1032D0001F910F91FF90EF90DF90CF900895109283
:1032E0005A0581E080935905D8CF10925A05643170
:1032F000710538F46A30710540F089E180938001EE
:10330000CCCF88E1693C7105C8F38CE0F7CF10920F
:103310005A0520E030E040EA52E4C701B6010E94BD
:10332000D42987FDBACF20E030E040E253E4C70162
:10333000B6010E94D42987FF29C00E946C2E68E242
:1033400070E00E949E2DBC01645C7F4F072E000C34
:10335000880B990B0E94832A6B017C010B301105AD
:1033600098F00531110508F0B2C02EEC2003C00121
:10337000219F900D1124865E9B4F6AE070E00E94B1
:103380008A2D6093800189CF82E3B8CF20E030E0BE
:1033900040EA53E4C701B6010E94D42987FF23C045
:1033A0000E946C2E68EE73E00E949E2DBC01685155
:1033B0007C4F072E000C880B990B0E94832A6B010F
:1033C0007C010630110500F30531110508F07FC0BE
:1033D0002EEC2003C001219F900D1124865E9B4F8F
:1033E0006FE070E0CCCF20E030E040E254E4C70171
:1033F000B6010E94D42987FF24C00E946C2E60ED84
:1034000077E00E949E2DBC016854744F072E000C7B
:10341000880B990B0E94832A6B017C0100311105F6
:1034200008F4B2CF0531110508F051C02EEC20038D
:10343000C001219F900D1124865E9B4F65E070E0D6
:103440009ECF20E030E040EA54E4C701B6010E947C
:10345000D42987FF22CF0E946C2E60ED77E00E9476
:103460009E2DBC016854744F072E000C880B990BDD
:103470000E94832A6B017C010432110508F484CF79
:103480000333110520F52EEC2003C001219F900D80
:1034900011248A50964FA4CF81E080935A0564315D
:1034A000710590F420E030E040E85EE36A30710599
:1034B00020F020E030E040E05FE3C701B6010E9469
:1034C0009A2B6B017C0121CF693C710518F0109299
:1034D0008001E3CE90E080E00E94812A20E030E08D
:1034E00040EA51E40E94672920E030E044E353E4DD
:1034F0000E94D9299B01AC010E949A2B20E030E068
:1035000048E451E40E949A2B0E94522A8CE0861BC8
:10351000F5CE81E080935A052AE0269FC001279FBF
:10352000900D112468EB7BE00E948A2D8C5D954004
:1035300097FF03C0919581959109BC017727072ECC
:10354000000C880B990B0E94832A2EE333EC4EE289
:1035500059E30E949A2B20E030E040EC5EE30E94A9
:1035600068290E94522A0DCF81E080935A05C80134
:1035700083709927892B19F1C8018170992724E656
:10358000289FB001299F700D112490E080E00E94D7
:10359000812A20E030E040E05EE30E949A2B20E0A8
:1035A00030E040E45FE30E9468290E94522A609361
:1035B000800107701127012B09F06FCE88CF82E3BD
:1035C00080938001F6CF81E080935A0582E3809357
:1035D00080010C3F1A4308F460CE90E080E00E9426
:1035E000812A20E030E047E153E40E94672920E08F
:1035F00030E04AE754E40E94D92920E030E048E472
:1036000052E40E949A2B20E030E040EA51E40E940C
:10361000C92A0E944B2A660F771F660F771F675DC6
:103620007B4FFB012081318142815381C701B6016B
:103630000E949A2B6B017C0130CE80917305811121
:103640000E94F413089521E08F3F910508F020E0D7
:10365000822F08950E94231B08950E941D1B109223
:10366000730540E068E070E081E092E00E94611440
:1036700008951092720540E068E070E081E891E002
:103680000E94611408950E941D1B2091230330E0C5
:103690002F5F3F4F237033272093230348E2429F3D
:1036A000C001439F900D112440E065E070E08F570A
:1036B0009D4F0E9461140895CF9380916F058823D8
:1036C00009F442C080915B0590915C05009799F5E3
:1036D0000E947F2190935C0580935B05E0915D05DE
:1036E00080915E058150990BEE2321F02E2F215001
:1036F000330BC90120917305222389F0F0E0E15AD0
:10370000FA4FC081815A9A4FFC0180810E94EF13C9
:1037100080917305882319F08C2F0E94EA13809101
:103720005D0590E0019660915E0570E00E949E2D1F
:1037300080935D0509C00E9497212091210330915B
:1037400022032817390720F2CF910895089581E0C8
:103750008093730540E068E070E081E492E00E94AD
:1037600061140E94A61B0895089581E0809372055C
:1037700040E068E070E081EC91E00E9461140E94FA
:10378000B41B0895EF92FF921F93CF93DF93CDB7B1
:10379000DEB7A3970FB6F894DEBF0FBECDBF7C0196
:1037A00086324CE59407A9F4DB0112968C918823AC
:1037B00009F458C00E94A71B80E0A3960FB6F894A6
:1037C000DEBF0FBECDBFDF91CF911F91FF90EF9075
:1037D00008958732BCE59B0741F4FB018281882371
:1037E00009F440C00E942D1BE7CF8832FCE59F07FB
:1037F00051F480917305DB0112969C91992391F10C
:103800008111F0CFD7CF8C32BCE59B0739F4FB0197
:103810008281882339F10E94B51BCECF8D32FCE521
:103820009F0741F4DB0112968C918823D9F00E9406
:10383000391BC2CF8E32BCE59B0749F4FB01828164
:10384000882381F0809172058111F1CFE4CF893214
:103850009C4541F4DB0112968C91882319F00E945B
:10386000431BAACF20917305211105C080917205D9
:10387000882309F4DBC0FB013281332309F450C0F3
:10388000F0EEEF16F10461F40E941D1B81E08093BD
:1038900071051092700510926F0510925E058CCF25
:1038A00042EEE416F10471F40E941D1B8091710533
:1038B000882319F081E080937005109271051092B1
:1038C0006F057ACF83EEE816F10491F480917005CC
:1038D000882331F10E941D1B1092710581E08093B5
:1038E0006F0510925D0510925C0510925B0564CF28
:1038F00092E5E916F10451F480912103909122039D
:103900000A97909322038093210356CFA1E5EA16EC
:10391000F10431F480912103909122030A96F1CFB2
:103920008091230310912603811111C013508091BF
:103930002403180FFB018081180F418184E090E07F
:10394000841B9109FCE08F9F100D112414C081305D
:1039500071F5105E80912403180FDB018C91180F14
:1039600011964C9184E090E0841B9109982F990F57
:10397000990F890F180F332309F451C0222319F02E
:10398000812F0E94EA1380917105882351F0809164
:103990005E05E82FF0E0E15AFA4F10838F5F8093C5
:1039A0005E05C7010E942A1B91E0892706CF82305D
:1039B00071F4105E80912403180FFB018081180FB1
:1039C000418184E090E0841B9109F7E0BCCF833013
:1039D00091F683E2E4E9F3E0DE01119601900D92A5
:1039E0008A95E1F7DB01EC9181E090E08C0F9D1F5F
:1039F0008E0F911DFC018091240390912503E80F07
:103A0000F91F13508081180F11964C9184E090E0BB
:103A1000841B9109ACE08A9F100D1124ACCF2223A6
:103A200009F4BFCF812F0E94EF13BBCF81E0C5CE39
:103A3000CF93DF93EC01FB018281882309F45DC100
:103A4000C430FDE5DF07C0F5CB3F9CE5D90730F476
:103A50009E0122503C4524313105B0F50E945F0E95
:103A60009093A9058093A805C1318CE5D80709F486
:103A700001C108F05EC0C930ECE5DE0709F4C8C03A
:103A8000C8F5C5308CE5D80709F4BAC000F5C330D5
:103A9000ECE5DE0709F4ACC008F0AEC0C230DC458E
:103AA00009F4A0C08091A8059091A9050E946D0E0F
:103AB0000E94490880E008C0C236EDE5DE0771F2D9
:103AC000C63AFDE5DF0751F2DF91CF91089580916D
:103AD000A8058062C7309CE5D90709F486C08091AB
:103AE000A8058061C830DC4508F47FC08091A80536
:103AF00080647BC0CD30FCE5DF0709F4ABC058F42F
:103B0000CB309CE5D90709F4A1C008F487C08091A7
:103B1000A8058D7F6AC08091A8058F7ECF30FCE517
:103B2000DF0709F462C008F499C08091A8058F7D71
:103B30005CC0CE3F9CE5D90709F498C038F5C53183
:103B4000FCE5DF0709F4B6C080F4C3319CE5D90772
:103B500009F49AC008F492C00E9449089091A805FF
:103B6000892F97FB87F9805840C0CC3FFCE5DF07E1
:103B700009F44AC008F076C08091A9058160CB3F66
:103B8000DC4509F08FCF8093A9058CCFC230EDE5DD
:103B9000DE0709F4A0C0B0F4C1158DE5D80709F41B
:103BA0007EC008F448C08091A905982F9095917027
:103BB0008E7F892B90FB81F98093A90540E081FFDE
:103BC00074C03FC0C236EDE5DE0709F488C0C63ACE
:103BD000FDE5DF0709F48AC0C330DD4509F062CF97
:103BE00080E07AC08091A80581608093A8055ACFB3
:103BF0008091A8058260F9CF8091A8058460F5CFF7
:103C00008091A8058860F1CF8091A9058260BBCF23
:103C10000E9449088091A8058068E7CF8091A80597
:103C20008C608093A80540E064E070E087E593E055
:103C30000E94611437CF8091A90583608093A90504
:103C400040E064E070E087E293E0F2CF8091A80565
:103C50008E7FCBCF8091A8058B7FC7CF8091A805A1
:103C6000877FC3CF8091A9058E7F8DCF8091A905D5
:103C70008D7F89CF8091A8058F7BB7CF0E9449089F
:103C80008091A8058F77B1CF8091A805837F80931D
:103C9000A80540E062E070E087E793E0C9CF80913B
:103CA000A9058C7F8093A90540E062E070E087E47D
:103CB00093E0BECF8091A80582FB992790F921E07F
:103CC000922790FB82F990FB83F98093A80540E04E
:103CD00083FFE0CFA9CF81E00E94050FE3CE909152
:103CE000A805892F8F7E94FF80617FCF9091A805D2
:103CF000892F8E7F90FF816078CF81E0E5CECF93D2
:103D0000DF93EB0186319C4511F50E94490D9A81A4
:103D1000992399F08A7A91E009F490E090937405E0
:103D2000811109C089E20E94210D0E948A0D80E064
:103D3000DF91CF91089585E3F6CF809174058111CD
:103D400004C089E20E94290DF0CF85E3FBCF81E01A
:103D5000EFCF0F931F93CF93DF93C42FD22FFC018C
:103D600082818823C9F0409377050E947F21909338
:103D700076058093750580E28C0F883040F4C7701B
:103D800081E001C0880FCA95EAF70E94DF05DF9144
:103D9000CF911F910F91089510917705141332C0A0
:103DA00080917505909176050E949721883C910538
:103DB00048F5C0E2CD0F1D17B9F080E2810F8830C1
:103DC00040F4177081E001C0880F1A95EAF70E944D
:103DD000E605C83048F481E09D2F977001C0880F38
:103DE0009A95EAF70E94DF05802F0E94D605C83019
:103DF00070F6D77081E001C0880FDA95EAF70E946B
:103E0000E605C5CF80E28C0F883008F6C77081E0E8
:103E100001C0880FCA95EAF7F2CF0F939C01CB013E
:103E2000243F4CE5340759F1A8F4293DFCE53F0750
:103E300001F12A3D4CE53407D1F1283D3C4591F490
:103E400006E221EE41EE68ED7CE50E94A91E80E0CD
:103E50000F910895263FFCE53F07E9F0B0F0273FBA
:103E60003C45F9F0FC018281882339F110927705F5
:103E7000EFCF07E225EE45EE69ED7CE5E6CF06E201
:103E800021EE40EE64EF7CE5E0CF07E225EE44EE64
:103E900065EF7CE5DACF06E221EE42EE66EF7CE5E7
:103EA000D4CF07E225EE46EE67EF7CE5CECF08E201
:103EB00021E045EE6AED7CE5C8CF81E0C9CF909363
:103EC000890480938804089590937D0580937C05F0
:103ED0000895E0917C05F0917D05309729F00190DF
:103EE000F081E02D0995089580E00895EF92FF920A
:103EF0000F931F93CF93DF93EC01E0917C05F0913A
:103F00007D05309709F440C080919303882341F0E8
:103F10008091A80587FF04C08881898386E0888313
:103F20000280F381E02DCE01099580913E0582FF4C
:103F30002BC080FF04C087EC92E00E948B0210E04F
:103F400000E081ECE82E82E0F82E80913E0580FFB3
:103F50000EC0FE01E00FF11F80811F928F93FF9230
:103F6000EF920E9424030F900F900F900F900F5F1D
:103F70001F4F0830110549F780913E0580FF04C0AE
:103F80008FEB92E00E948B02CDB7DEB7E6E00C9497
:103F9000112E20917A0530917B052817390771F091
:103FA00090937B0580937A05E0917C05F0917D05E7
:103FB000309721F00680F781E02D09950895209132
:103FC0007805309179052817390771F090937905B4
:103FD00080937805E0917C05F0917D05309721F084
:103FE0000084F185E02D09950895FC0132968091B9
:103FF0009303882321F08091A8059EE187FF96E036
:1040000080E0915008F4089521912223D1F38F5F2D
:10401000F8CF662301F1209193032223F1F0209140
:10402000A80527FF1AC0462F4695469546954E315E
:1040300090F4677021E030E002C0220F331F6A95D0
:10404000E2F7840F911DFC01828190E0282339233F
:1040500081E0232B69F480E00895FC0132960896F4
:104060002191261721F0E817F907D1F7F4CF81E065
:1040700008959C01FC0132969FEF80E04191461724
:1040800051F09F3F19F4411101C0982F8F5F863086
:10409000A9F79F3F09F40895290F311D97FD3A951F
:1040A000F90162830895FC01329608962191261346
:1040B00003C0DF0111971C92E817F907B9F70895BB
:1040C000E62FE695E695E695EE3170F4E80FF92FC8
:1040D000F11D677021E030E001C0220F6A95EAF718
:1040E0008281822B8283089580913E0580FF0CC0DF
:1040F0001F926F9387EF92E09F938F930E94240308
:104100000F900F900F900F900895E62FE695E6958B
:10411000E695EE3178F4E80FF92FF11D677021E094
:1041200030E001C0220F6A95EAF7209582812823AA
:104130002283089580913E0580FF0CC01F926F93EB
:1041400089ED92E09F938F930E9424030F900F902C
:104150000F900F90089520919303222339F020911E
:10416000A80527FF03C00E94602008950E943920FF
:10417000089520919303222339F02091A80527FF69
:1041800003C00E94852008950E9453200895FC01D9
:10419000329680919303882351F08091A80587FF80
:1041A00006C08EE1DF011D928A95E9F7089586E049
:1041B000F9CF08950E94D9200895811106C081E0A9
:1041C00080937E050E94DA20089582E0F9CF83E093
:1041D00080937E050E94DA2008950E94DD200895D4
:1041E00081E080937E050E94DA2008950E94F020ED
:1041F0000895089508950E94FA2008950895089555
:104200000E94F9200895CF930E94FE200E94FF1281
:104210000E94FF20C0E08C2F0E94F411892B31F402
:10422000CF5FC430C1F780E0CF91089581E0FCCF2B
:1042300085B7806885BF85B7806885BF08951F9260
:104240001FB61F9211248F939F93AF93BF938091BA
:104250007F05811113C08091100690911106A091E5
:104260001206B09113064196A11DB11D8093100650
:1042700090931106A0931206B0931306BF91AF91CD
:104280009F918F911F901FBE1F90189580911806C7
:10429000843031F10E942B0410927F0588E190E078
:1042A00020E40FB6F894A895809360000FBE209389
:1042B000600083B7817F846083BF83B7816083BFE1
:1042C0007894889583B78E7F83BF0FB6F894A895AE
:1042D00080916000886180936000109260000FBE42
:1042E00008950E9449080E943204089582E084BD26
:1042F00093E095BD9AEF97BD80936E0008952FB718
:10430000F8948091100690911106A0911206B09138
:1043100013062FBF08952FB7F8946091100670917F
:10432000110680911206909113062FBF08959C01EB
:104330004FB7F8948091100690911106A091120643
:10434000B09113064FBF821B930B089578941F9270
:104350001FB61F9211248F939F93AF93BF938091A9
:10436000100690911106A0911206B09113060196C5
:10437000A11DB11D8093100690931106A093120603
:10438000B0931306BF91AF919F918F911F901FBE65
:104390001F90189581E08093E00080E28093D80020
:1043A0001092C9008FE19EE40197F1F700C0000070
:1043B00087E090EBDC018093210690932206A09386
:1043C0002306B093240688E19CE00FB6F894A895E4
:1043D000809360000FBE90936000FFCF88E19CE067
:1043E0000FB6F894A895809360000FBE909360007C
:1043F000FFCF8091A60508950895CF93DF93EC0138
:10440000809193038823B1F18091A80587FF32C082
:1044100060E282E08093E9008FEF9091E8008150A4
:1044200095FD06C095ED9A95F1F700008111F5CF45
:104430008091E80085FF1BC08091930370E050E0FD
:1044400040E0811104C050E040E068E070E0CE013F
:104450000E94E1248091E8008E778093E80080E25A
:10446000FE01A6E8B5E001900D928A95E1F7DF9193
:10447000CF91089568E081E0CDCF8093820570935D
:1044800084056093830580911806843001F582E0ED
:104490008093E9008FEF9091E800815095FD06C070
:1044A00095ED9A95F1F700008111F5CF8091E80024
:1044B00085FF0DC050E040E063E070E082E895E0E9
:1044C0000E94E1248091E8008E778093E8000895AF
:1044D000BC0184E00E943D220895BC0183E00E945B
:1044E0003D220895089589E293E00E948B02809115
:1044F0001706811109C00E9471260E94CE26809164
:10450000E20084608093E200089585E293E00E94D7
:104510008B0210921706089581E293E00E948B02AD
:104520000E94F02008958DE193E00E948B0260913B
:10453000140681E0611101C080E00E94E720089527
:1045400089E193E00E948B029091180681E09430FB
:1045500009F080E0609114060E94ED2008952091FA
:1045600081052F5F822F62E30E947E2D992319F02F
:1045700020938105089510928105809185058823F7
:10458000F1F0809118068430C1F49091E9009F7099
:104590002091EC00822F817020FD80E8892B93E030
:1045A0009093E9009091EB0090FF04C09091EE0091
:1045B00097FD08C08F708093E900109285050895DB
:1045C0001092F1009091E80095FDFACF9091E800EB
:1045D00090FFF0CF9091E8009E779093E800EACFAB
:1045E00042E061EC81E00E94ED2542E261EC82E074
:1045F0000E94ED2542E261EC83E00E94ED2590915E
:10460000180681E0943009F080E0609114060E9461
:10461000DD20089580911A06833009F461C030F4DA
:104620008130D1F1823009F49EC008958A3009F4B6
:104630008AC08B3009F46FC0893009F050C0809176
:104640001906813209F04BC080911D0690911E061B
:10465000029708F044C08091E800877F8093E800CB
:104660008091E80082FF37C09091F3008091F200C2
:10467000029731F48091F100813011F0863021F4FD
:104680008091F1008093A6058091E8008B7780935C
:10469000E8000E94212623C080911906813AF9F48E
:1046A0008091E800877F8093E80080911D069091BB
:1046B0001E06892B61F460E286E895E070E00E94B6
:1046C00030258091E8008B778093E800089560E0C2
:1046D00090E080E0F3CF809118068111C1CF08955A
:1046E00080911906813AD9F780911D0690911E0696
:1046F000892BA9F78091E800877F8093E80080915B
:10470000E80080FFFCCF809193038093F1008091BB
:10471000E8008E77BCCF80911906813201F7809135
:104720001D0690911E06892BD1F68091E800877FA7
:104730008093E8000E94212680911B0680939303BA
:104740000E944908089580911906813241F68091AE
:10475000E800877F8093E8000E94212680911C0654
:104760008093A705089580911906813A09F0B7CF83
:104770008091E800877F8093E8008091E80080FFC7
:10478000FCCF8091A705C1CF9FB7F8941092850503
:104790009FBF90911806943009F048C02091E9001D
:1047A0002F703091EC00932F917030FD90E8922B98
:1047B00023E02093E9002091EB0020FF34C02091FA
:1047C000EE0027FF30C020918005222321F02091A8
:1047D000E80025FF28C01092800526E03091E8000F
:1047E00035FF14C08093F1008091E80085FD27C05B
:1047F0008091E80080FFFCCF8091E8008E77809365
:10480000E8009F709093E90080E0089530911806C9
:10481000343049F43091EB0035FD05C0215041F4AE
:1048200081E0809380059F709093E9008FEF089559
:10483000EFE9FFE03197F1F700C00000CFCF8FB76D
:10484000F89421E0209385058FBFDBCF84B7877F65
:1048500084BF0FB6F894A89580916000886180931A
:104860006000109260000FBE80E890E00FB6F894F0
:1048700080936100909361000FBE0E94F62008951E
:104880000E9471260E94CE26E2EEF0E080818460D4
:10489000808378940E944C29089587E893E00E94D1
:1048A000641F089580911806853051F485E193E0E6
:1048B0000E948B0280911806853019F00E947121A8
:1048C00008950E94462180911606882399F30E943C
:1048D0000321882379F30E94CB240E944908EACF60
:1048E00008950E9474240895292F33272330310519
:1048F00021F168F42130310509F443C0223031053B
:1049000009F444C090E080E030E020E026C021328D
:10491000310551F122323105A9F76330710590F765
:10492000FB01EE0FFF1FE458FB4F208131816758D8
:104930007B4FFB01808190E010C099278130910569
:1049400081F0009729F00297E9F6EDE2F3E002C06A
:10495000E9E4F3E0849190E09F01FA013183208340
:104960000895EDE3F3E0F6CF6330710558F6660F76
:10497000771FFB01EE57FB4F2081318189E090E0EA
:10498000ECCF82E190E028EA33E0E7CF8BE590E0DE
:104990002DE433E0E2CF80E189BD82E189BD09B435
:1049A00000FEFDCF8091D8008F7D8093D80080914C
:1049B000E00082608093E0008091E00081FDFCCF08
:1049C0000895AF92BF92CF92DF92FF920F931F9301
:1049D000CF93DF936C01EB018A010E944026F82EF1
:1049E000811123C00115110539F0F80180819181F1
:1049F000C81BD90BC80ED91EB12CA12C2097A9F029
:104A00008091E80085FD22C08091E8008E77809338
:104A1000E80001151105A1F0F80180819181A80E2F
:104A2000B91EB182A08285E0F82E8F2DDF91CF9143
:104A30001F910F91FF90DF90CF90BF90AF9008959E
:104A40000E9440268823D1F2F82EEFCFF601819103
:104A50006F018093F1002197FFEFAF1ABF0ACECF0D
:104A6000FC0180911F069091200686179707A0F001
:104A70006115710529F49091E8009E779093E80004
:104A800090E06115710551F4911108C08091E80022
:104A900082FF34C080E00895BC01F2CF80911806F7
:104AA0008823C1F18530C1F18091E80083FD30C0D9
:104AB0008091E80082FDEACF8091E80080FFE1CF9D
:104AC0008091F3002091F200382F6115710519F0E3
:104AD0002830310558F091E02830310509F090E098
:104AE0002091E8002E772093E800CBCF819180932E
:104AF000F100615071092F5F3F4FE7CF8091180699
:104B0000882341F0853041F08091E80083FFBECFDB
:104B100081E0089582E0089583E00895FC0180918A
:104B20001F069091200686179707A0F06115710562
:104B300029F48091E8008E778093E80090E0611579
:104B4000710551F4911108C08091E80082FF35C0D1
:104B500080E00895BC01F2CF809118068823C9F146
:104B60008530C9F18091E80083FD31C08091E80073
:104B700082FDEACF8091E80080FFE1CF8091F300D1
:104B80002091F200382F6115710519F02830310598
:104B900058F091E02830310509F090E08091E8006C
:104BA0008E778093E800CBCF84918093F10031968B
:104BB000615071092F5F3F4FE6CF8091180688231F
:104BC00041F0853041F08091E80083FFBDCF81E066
:104BD000089582E0089583E00895982F973028F093
:104BE0008F708093E90081E008959093E900242F6D
:104BF000762F50E0981731F07091EC002091ED0085
:104C00005091F00021FD02C09F5FE8CF3091EB0092
:104C10003E7F3093EB003091ED003D7F3093ED000F
:104C20003091EB0031603093EB007093EC002093F7
:104C3000ED005093F0002091EE0027FDE5CF80E0DD
:104C400008958091190687FF13C08091E80082FFC4
:104C500006C08091E8008B778093E80004C08091C3
:104C600018068111F2CF0895809118068823D9F390
:104C70008091E80080FFF8CF8091E8008E77ECCF3C
:104C80002091E4003091E50095E6A9012091EC0027
:104C9000822F817020FF06C08091E80080FF06C04F
:104CA00080E008952091E80022FD1AC08091180646
:104CB000882389F0853089F08091EB0085FD0FC055
:104CC0002091E4003091E50042175307F9F291502A
:104CD000E1F684E0089582E0089583E0089581E09C
:104CE00008950E94E0260E94E826E0EEF0E0808130
:104CF00081608083E8EDF0E080818F77808319BC4C
:104D0000A7EDB0E08C918E7F8C9380818F7E808325
:104D10001092170608950F931F93CF93DF930E946D
:104D2000E0260E94E826C8EDD0E088818F7788834E
:104D300088818068888388818F7D888319BC1092E0
:104D4000180610921406109216061092150600EE20
:104D500010E0F80180818B7F808388818160888367
:104D600042E060E080E00E94ED25E1EEF0E080812D
:104D70008E7F8083E2EEF0E080818160808380819D
:104D800088608083F80180818E7F80838881806144
:104D90008883DF91CF911F910F910895E8EDF0E0A6
:104DA00080818F7E8083E7EDF0E080818160808369
:104DB00084E082BF81E0809317060E948B260895CD
:104DC000E8EDF0E080818E7F80831092E20008950C
:104DD0001092DA001092E10008951F920F920FB620
:104DE0000F9211242F933F934F935F936F937F9371
:104DF0008F939F93AF93BF93EF93FF938091E100C5
:104E000082FF0BC08091E20082FF07C08091E10029
:104E10008B7F8093E1000E94AF228091DA0080FFB7
:104E200019C08091D80080FF15C08091DA008E7F74
:104E30008093DA008091D90080FF96C080E189BD1F
:104E400082E189BD09B400FEFDCF81E080931806A0
:104E50000E9473228091E10080FF19C08091E200DE
:104E600080FF15C08091E2008E7F8093E2008091E8
:104E7000E20080618093E2008091D800806280939C
:104E8000D80019BC85E0809318060E949322809177
:104E9000E10084FF2BC08091E20084FF27C080E105
:104EA00089BD82E189BD89B5982F917080FFFBCFC4
:104EB0008091D8008F7D8093D8008091E1008F7E13
:104EC0008093E1008091E2008F7E8093E2008091E8
:104ED000E20081608093E20080911406882309F447
:104EE00049C084E0809318060E94A0228091E100CE
:104EF00083FF29C08091E20083FF25C08091E100FB
:104F0000877F8093E10082E0809318061092140658
:104F10008091E1008E7F8093E1008091E2008E7F9E
:104F20008093E2008091E20080618093E20042E0A1
:104F300060E080E00E94ED258091F0008860809321
:104F4000F0000E948C22FF91EF91BF91AF919F9151
:104F50008F917F916F915F914F913F912F910F9022
:104F60000FBE0F901F90189519BC109218060E9442
:104F7000852270CF8091E30087FD93E0909318061F
:104F8000B3CF1F920F920FB60F9211242F933F931E
:104F90004F935F936F937F938F939F93AF93BF9341
:104FA000CF93DF93EF93FF93D091E900DF7080916F
:104FB000EC00C82FC17080FDC0E81092E90080911C
:104FC000F000877F8093F00078940E94052810926B
:104FD000E9008091F00088608093F000CD2BCF70C5
:104FE000C093E900FF91EF91DF91CF91BF91AF9115
:104FF0009F918F917F916F915F914F913F912F91F1
:105000000F900FBE0F901F901895AAE2B0E0EBE052
:10501000F8E20C94F82D89E196E02091F100FC0172
:105020002193CF01F6E081329F07B9F70E940A234E
:105030008091E80083FF1EC18091190690911A06A5
:105040009A3008F017C1E92FF0E0EC5EF04D0C94B7
:10505000D42D803899F0823809F00CC180911D065A
:105060008F70873008F006C18093E9008091EB00D3
:1050700085FB882780F91092E90006C0809115060B
:1050800090911606911182609091E800977F90931D
:10509000E8008093F1001092F1008091E8008E7793
:1050A000E5C0882309F4D3C0823009F0E3C08091C1
:1050B0001B068111D6C080911D068F702FEF280F1F
:1050C000263008F0D7C08093E9002091EB0020FF44
:1050D000C8C0933031F48091EB0080628093EB0084
:1050E000C0C09091EB0090619093EB0021E030E024
:1050F00001C0220F8A95EAF72093EA001092EA0095
:105100008091EB008860EACF8111B4C010911B063A
:105110001F778091E3008078812B8093E30080915A
:10512000E800877F8093E8000E9421268091E800B4
:1051300080FFFCCF8091E30080688093E30082E0F1
:10514000111183E08093180695C08058823008F0D2
:1051500091C080911B0690911C068C3D23E0920724
:10516000A1F583E08A838AE289834FB7F894DE0150
:10517000139620E03EE051E2E32FF0E05093570019
:10518000E49120FF03C0E295EF703F5FEF708E2F38
:1051900090E0EA30C0F0C7968D939D932F5F243145
:1051A00059F74FBF8091E800877F8093E8006AE25B
:1051B00070E0CE0101960E9430258091E8008B7747
:1051C0008093E80057C0C096E7CF60911D067091AC
:1051D0001E06AE014F5F5F4F0E947124BC01892BF8
:1051E00009F448C09091E800977F9093E800898186
:1051F0009A810E948E25E1CF8038E1F58091E80008
:10520000877F8093E800809114068093F10045CF5A
:10521000811130C090911B06923060F58091E800BA
:10522000877F8093E800909314060E942126809146
:105230001406882311F084E005C08091E30087FD07
:10524000FACF81E0809318060E94F02213C080916B
:105250001B06813079F481E0933009F080E080937F
:1052600016061092E9008091E800877F8093E8009D
:105270000E9421268091E80083FF0AC08091E80007
:10528000877F8093E8008091EB0080628093EB0041
:10529000AA96E3E00C94142ECF93809118068823ED
:1052A000A1F0C091E900CF709091EC00892F81703E
:1052B00090FD80E8C82B1092E9008091E80083FD02
:1052C0000E940528CF70C093E900CF9108955058EF
:1052D000BB27AA270E947F290C945B2B0E944D2B91
:1052E00038F00E94542B20F039F49F3F19F426F433
:1052F0000C944A2B0EF4E095E7FB0C94362BE92F27
:105300000E946C2B58F3BA1762077307840795073E
:1053100020F079F4A6F50C948E2B0EF4E0950B2E6C
:10532000BA2FA02D0B01B90190010C01CA01A001F7
:105330001124FF27591B99F0593F50F4503E68F152
:105340001A16F040A22F232F342F4427585FF3CF93
:10535000469537952795A795F0405395C9F77EF464
:105360001F16BA0B620B730B840BBAF09150A1F0AD
:10537000FF0FBB1F661F771F881FC2F70EC0BA0F33
:10538000621F731F841F48F4879577956795B795BB
:10539000F7959E3F08F0B0CF9395880F08F09927B6
:1053A000EE0F9795879508950E94122B08F481E0DF
:1053B00008950E94ED290C945B2B0E94542B58F009
:1053C0000E944D2B40F029F45F3F29F00C94362BBE
:1053D00051110C948F2B0C944A2B0E946C2B68F368
:1053E0009923B1F3552391F3951B550BBB27AA279E
:1053F00062177307840738F09F5F5F4F220F331FD8
:10540000441FAA1FA9F335D00E2E3AF0E0E832D09F
:1054100091505040E695001CCAF72BD0FE2F29D0A2
:10542000660F771F881FBB1F261737074807AB0774
:10543000B0E809F0BB0B802DBF01FF2793585F4FE9
:105440003AF09E3F510578F00C94362B0C948F2B3C
:105450005F3FE4F3983ED4F3869577956795B795CB
:10546000F7959F5FC9F7880F911D9695879597F9D6
:105470000895E1E0660F771F881FBB1F621773074F
:105480008407BA0720F0621B730B840BBA0BEE1F64
:1054900088F7E09508950E94522A6894B1110C94FF
:1054A0008F2B08950E94742B88F09F5798F0B92F86
:1054B0009927B751B0F0E1F0660F771F881F991F49
:1054C0001AF0BA95C9F714C0B13091F00E948E2B32
:1054D000B1E008950C948E2B672F782F8827B85F42
:1054E00039F0B93FCCF3869577956795B395D9F7A1
:1054F0003EF490958095709561957F4F8F4F9F4FAB
:105500000895E89409C097FB3EF4909580957095B6
:1055100061957F4F8F4F9F4F9923A9F0F92F96E9FF
:10552000BB279395F695879577956795B795F11174
:10553000F8CFFAF4BB0F11F460FF1BC06F5F7F4F11
:105540008F4F9F4F16C0882311F096E911C0772323
:1055500021F09EE8872F762F05C0662371F096E82C
:10556000862F70E060E02AF09A95660F771F881FFB
:10557000DAF7880F9695879597F908950E944D2B35
:1055800020F019F00E94542B50F40C944A2B0C94E8
:105590008F2BE92F0E946C2B88F35523B1F3E7FB87
:1055A0006217730784079507A8F189F3E92FFF278E
:1055B00088232AF03197660F771F881FDAF7952F17
:1055C0005527442332F091505040220F331F441F7F
:1055D000D2F7BB27E91BF50B621B730B840BB109D8
:1055E000B1F222F4620F731F841FB11D31972AF0AC
:1055F000660F771F881FBB1FEFCF9150504062F09E
:1056000041F0882332F0660F771F881F9150504079
:10561000C1F793950C943C2B8695779567959F5F82
:10562000D9F7F7CF990F0008550FAA0BE0E8FEEF66
:1056300016161706E807F907C0F012161306E40756
:10564000F50798F0621B730B840B950B39F40A264F
:1056500061F0232B242B252B21F408950A2609F42D
:10566000A140A6958FEF811D811D089597F99F6731
:1056700080E870E060E008959F3F31F0915020F4A1
:10568000879577956795B795880F911D969587951E
:1056900097F908959FEF80EC089500240A94161658
:1056A000170618060906089500240A941216130610
:1056B000140605060895092E0394000C11F488239E
:1056C00052F0BB0F40F4BF2B11F460FF04C06F5FBA
:1056D0007F4F8F4F9F4F089557FD9058440F551F90
:1056E00059F05F3F71F04795880F97FB991F61F064
:1056F0009F3F79F087950895121613061406551FDB
:10570000F2CF4695F1DF08C0161617061806991F46
:10571000F1CF86957105610508940895E894BB273B
:1057200066277727CB0197F908950E94122B08F47A
:105730008FEF08950E94AD2B0C945B2B0E944D2B94
:1057400038F00E94542B20F0952311F00C94362B46
:105750000C944A2B11240C948F2B0E946C2B70F309
:10576000959FC1F3950F50E0551F629FF001729F06
:10577000BB27F00DB11D639FAA27F00DB11DAA1F15
:10578000649F6627B00DA11D661F829F2227B00D62
:10579000A11D621F739FB00DA11D621F839FA00DED
:1057A000611D221F749F3327A00D611D231F849F3D
:1057B000600D211D822F762F6A2F11249F57504094
:1057C0009AF0F1F088234AF0EE0FFF1FBB1F661F0F
:1057D000771F881F91505040A9F79E3F510580F0D8
:1057E0000C94362B0C948F2B5F3FE4F3983ED4F34C
:1057F000869577956795B795F795E7959F5FC1F77C
:10580000FE2B880F911D9695879597F90895FA01BB
:10581000EE0FFF1F309621053105A1F161157105CD
:1058200061F48038BFE39B0749F1689490388105A3
:1058300061F08038BFEF9B0741F099234AF5FF3FA5
:10584000E1053105210519F1E8940894E795D9019E
:10585000AA2329F4AB2FBE2FF85FD0F310C0FF5F4F
:1058600070F4A695E0F7F73950F019F0FF3A38F4E4
:105870009F779F930DD00F9007FC9058089546F0A6
:105880000C944A2B60E070E080E89FE308954FE7B6
:105890009F775F934F933F932F930E94022D2F91F9
:1058A0003F914F915F910E949A2B0C945F2C29F4A9
:1058B00016F00C94362B0C948E2B0C944A2B0E94D1
:1058C000742BA8F39638A0F707F80F92E8942BE30F
:1058D0003AEA48EB5FE70E94B02B0F920F920F92CB
:1058E0004DB75EB70F920E944A2DECEAF0E00E949D
:1058F000912C4F915F91EF91FF91E595EE1FFF1F66
:1059000049F0FE57E0684427EE0F441FFA95E1F78F
:105910004195550B0E94C42C0F9007FE0C94B82C97
:105920000895DF93CF931F930F93FF92EF92DF922F
:105930007B018C01689406C0DA2EEF010E94AD2B2A
:10594000FE01E894A5912591359145915591A6F3D5
:10595000EF010E947F29FE019701A801DA9469F7FF
:10596000DF90EF90FF900F911F91CF91DF910895FD
:105970009B01AC0160E070E080E89FE30C94D929C2
:105980000C94362B0C943C2B0E94742BD8F3992347
:10599000C9F3940F511DA3F39150504094F059F066
:1059A000882332F0660F771F881F91505040C1F74F
:1059B0009E3F51052CF7880F911D9695879597F975
:1059C00008955F3FACF0983E9CF0BB278695779595
:1059D0006795B79508F4B1609395C1F7BB0F58F779
:1059E00011F460FFE8CF6F5F7F4F8F4F9F4FE3CF82
:1059F0000C948F2B16F00C943C2B0C944A2B68942F
:105A00000C94362B0E94742BA8F39923C1F3AEF3A8
:105A1000DF93CF931F930F93FF92C92FDD27882326
:105A20002AF02197660F771F881FDAF720E030E011
:105A300040E85FEB9FE3883920F0803E38F0219604
:105A40008F770E946829E4EDF0E004C00E94682985
:105A5000E1E0F1E00E94912C8B01BE01EC01FB2EF4
:105A60006F5771097595771F880B990B0E94832AD0
:105A700028E132E741E35FE30E94AD2BAF2D9801AF
:105A8000AE01FF900F911F91CF91DF910E947F296E
:105A90000C945B2BFA01DC01AA0FBB1F9B01AC012C
:105AA000BF5728F4222733274427507820C0B75106
:105AB00090F4AB2F0024469537952795011CA395AC
:105AC000D2F3002071F0220F331F441FB395DAF395
:105AD0000ED00C94672961307105A0E88A07B94699
